{"abi":[{"inputs":[{"internalType":"uint256","name":"minimum","type":"uint256"},{"internalType":"address","name":"creator","type":"address"}],"stateMutability":"nonpayable","type":"constructor"},{"inputs":[{"internalType":"uint256","name":"index","type":"uint256"}],"name":"approveRequest","outputs":[],"stateMutability":"nonpayable","type":"function"},{"inputs":[{"internalType":"address","name":"","type":"address"}],"name":"approvers","outputs":[{"internalType":"bool","name":"","type":"bool"}],"stateMutability":"view","type":"function"},{"inputs":[],"name":"approversCount","outputs":[{"internalType":"uint256","name":"","type":"uint256"}],"stateMutability":"view","type":"function"},{"inputs":[],"name":"contribute","outputs":[],"stateMutability":"payable","type":"function"},{"inputs":[{"internalType":"string","name":"description","type":"string"},{"internalType":"uint256","name":"value","type":"uint256"},{"internalType":"address","name":"recipient","type":"address"}],"name":"createRequest","outputs":[],"stateMutability":"nonpayable","type":"function"},{"inputs":[{"internalType":"uint256","name":"index","type":"uint256"}],"name":"finalizeRequest","outputs":[],"stateMutability":"nonpayable","type":"function"},{"inputs":[],"name":"getRequestCount","outputs":[{"internalType":"uint256","name":"","type":"uint256"}],"stateMutability":"view","type":"function"},{"inputs":[],"name":"getSummary","outputs":[{"internalType":"uint256","name":"","type":"uint256"},{"internalType":"uint256","name":"","type":"uint256"},{"internalType":"uint256","name":"","type":"uint256"},{"internalType":"uint256","name":"","type":"uint256"},{"internalType":"address","name":"","type":"address"}],"stateMutability":"view","type":"function"},{"inputs":[],"name":"manager","outputs":[{"internalType":"address","name":"","type":"address"}],"stateMutability":"view","type":"function"},{"inputs":[],"name":"minimumContribution","outputs":[{"internalType":"uint256","name":"","type":"uint256"}],"stateMutability":"view","type":"function"},{"inputs":[{"internalType":"uint256","name":"","type":"uint256"}],"name":"requests","outputs":[{"internalType":"string","name":"description","type":"string"},{"internalType":"uint256","name":"value","type":"uint256"},{"internalType":"address","name":"recipient","type":"address"},{"internalType":"bool","name":"complete","type":"bool"},{"internalType":"uint256","name":"approvalCount","type":"uint256"}],"stateMutability":"view","type":"function"}],"devdoc":{"kind":"dev","methods":{},"version":1},"evm":{"assembly":"    /* \"Campaign.sol\":423:2727  contract Campaign {... */\n  mstore(0x40, 0x80)\n    /* \"Campaign.sol\":936:1052  constructor(uint minimum, address creator) {... */\n  callvalue\n  dup1\n  iszero\n  tag_1\n  jumpi\n  0x00\n  dup1\n  revert\ntag_1:\n  pop\n  mload(0x40)\n  sub(codesize, bytecodeSize)\n  dup1\n  bytecodeSize\n  dup4\n  codecopy\n  dup2\n  dup2\n  add\n  0x40\n  mstore\n  dup2\n  add\n  swap1\n  tag_2\n  swap2\n  swap1\n  tag_3\n  jump\t// in\ntag_2:\n    /* \"Campaign.sol\":999:1006  creator */\n  dup1\n    /* \"Campaign.sol\":989:996  manager */\n  0x01\n  0x00\n    /* \"Campaign.sol\":989:1006  manager = creator */\n  0x0100\n  exp\n  dup2\n  sload\n  dup2\n  0xffffffffffffffffffffffffffffffffffffffff\n  mul\n  not\n  and\n  swap1\n  dup4\n  0xffffffffffffffffffffffffffffffffffffffff\n  and\n  mul\n  or\n  swap1\n  sstore\n  pop\n    /* \"Campaign.sol\":1038:1045  minimum */\n  dup2\n    /* \"Campaign.sol\":1016:1035  minimumContribution */\n  0x02\n    /* \"Campaign.sol\":1016:1045  minimumContribution = minimum */\n  dup2\n  swap1\n  sstore\n  pop\n    /* \"Campaign.sol\":936:1052  constructor(uint minimum, address creator) {... */\n  pop\n  pop\n    /* \"Campaign.sol\":423:2727  contract Campaign {... */\n  jump(tag_6)\n    /* \"#utility.yul\":88:205   */\ntag_8:\n    /* \"#utility.yul\":197:198   */\n  0x00\n    /* \"#utility.yul\":194:195   */\n  dup1\n    /* \"#utility.yul\":187:199   */\n  revert\n    /* \"#utility.yul\":334:411   */\ntag_10:\n    /* \"#utility.yul\":371:378   */\n  0x00\n    /* \"#utility.yul\":400:405   */\n  dup2\n    /* \"#utility.yul\":389:405   */\n  swap1\n  pop\n    /* \"#utility.yul\":334:411   */\n  swap2\n  swap1\n  pop\n  jump\t// out\n    /* \"#utility.yul\":417:539   */\ntag_11:\n    /* \"#utility.yul\":490:514   */\n  tag_23\n    /* \"#utility.yul\":508:513   */\n  dup2\n    /* \"#utility.yul\":490:514   */\n  tag_10\n  jump\t// in\ntag_23:\n    /* \"#utility.yul\":483:488   */\n  dup2\n    /* \"#utility.yul\":480:515   */\n  eq\n    /* \"#utility.yul\":470:533   */\n  tag_24\n  jumpi\n    /* \"#utility.yul\":529:530   */\n  0x00\n    /* \"#utility.yul\":526:527   */\n  dup1\n    /* \"#utility.yul\":519:531   */\n  revert\n    /* \"#utility.yul\":470:533   */\ntag_24:\n    /* \"#utility.yul\":417:539   */\n  pop\n  jump\t// out\n    /* \"#utility.yul\":545:688   */\ntag_12:\n    /* \"#utility.yul\":602:607   */\n  0x00\n    /* \"#utility.yul\":633:639   */\n  dup2\n    /* \"#utility.yul\":627:640   */\n  mload\n    /* \"#utility.yul\":618:640   */\n  swap1\n  pop\n    /* \"#utility.yul\":649:682   */\n  tag_26\n    /* \"#utility.yul\":676:681   */\n  dup2\n    /* \"#utility.yul\":649:682   */\n  tag_11\n  jump\t// in\ntag_26:\n    /* \"#utility.yul\":545:688   */\n  swap3\n  swap2\n  pop\n  pop\n  jump\t// out\n    /* \"#utility.yul\":694:820   */\ntag_13:\n    /* \"#utility.yul\":731:738   */\n  0x00\n    /* \"#utility.yul\":771:813   */\n  0xffffffffffffffffffffffffffffffffffffffff\n    /* \"#utility.yul\":764:769   */\n  dup3\n    /* \"#utility.yul\":760:814   */\n  and\n    /* \"#utility.yul\":749:814   */\n  swap1\n  pop\n    /* \"#utility.yul\":694:820   */\n  swap2\n  swap1\n  pop\n  jump\t// out\n    /* \"#utility.yul\":826:922   */\ntag_14:\n    /* \"#utility.yul\":863:870   */\n  0x00\n    /* \"#utility.yul\":892:916   */\n  tag_29\n    /* \"#utility.yul\":910:915   */\n  dup3\n    /* \"#utility.yul\":892:916   */\n  tag_13\n  jump\t// in\ntag_29:\n    /* \"#utility.yul\":881:916   */\n  swap1\n  pop\n    /* \"#utility.yul\":826:922   */\n  swap2\n  swap1\n  pop\n  jump\t// out\n    /* \"#utility.yul\":928:1050   */\ntag_15:\n    /* \"#utility.yul\":1001:1025   */\n  tag_31\n    /* \"#utility.yul\":1019:1024   */\n  dup2\n    /* \"#utility.yul\":1001:1025   */\n  tag_14\n  jump\t// in\ntag_31:\n    /* \"#utility.yul\":994:999   */\n  dup2\n    /* \"#utility.yul\":991:1026   */\n  eq\n    /* \"#utility.yul\":981:1044   */\n  tag_32\n  jumpi\n    /* \"#utility.yul\":1040:1041   */\n  0x00\n    /* \"#utility.yul\":1037:1038   */\n  dup1\n    /* \"#utility.yul\":1030:1042   */\n  revert\n    /* \"#utility.yul\":981:1044   */\ntag_32:\n    /* \"#utility.yul\":928:1050   */\n  pop\n  jump\t// out\n    /* \"#utility.yul\":1056:1199   */\ntag_16:\n    /* \"#utility.yul\":1113:1118   */\n  0x00\n    /* \"#utility.yul\":1144:1150   */\n  dup2\n    /* \"#utility.yul\":1138:1151   */\n  mload\n    /* \"#utility.yul\":1129:1151   */\n  swap1\n  pop\n    /* \"#utility.yul\":1160:1193   */\n  tag_34\n    /* \"#utility.yul\":1187:1192   */\n  dup2\n    /* \"#utility.yul\":1160:1193   */\n  tag_15\n  jump\t// in\ntag_34:\n    /* \"#utility.yul\":1056:1199   */\n  swap3\n  swap2\n  pop\n  pop\n  jump\t// out\n    /* \"#utility.yul\":1205:1712   */\ntag_3:\n    /* \"#utility.yul\":1284:1290   */\n  0x00\n    /* \"#utility.yul\":1292:1298   */\n  dup1\n    /* \"#utility.yul\":1341:1343   */\n  0x40\n    /* \"#utility.yul\":1329:1338   */\n  dup4\n    /* \"#utility.yul\":1320:1327   */\n  dup6\n    /* \"#utility.yul\":1316:1339   */\n  sub\n    /* \"#utility.yul\":1312:1344   */\n  slt\n    /* \"#utility.yul\":1309:1428   */\n  iszero\n  tag_36\n  jumpi\n    /* \"#utility.yul\":1347:1426   */\n  tag_37\n  tag_8\n  jump\t// in\ntag_37:\n    /* \"#utility.yul\":1309:1428   */\ntag_36:\n    /* \"#utility.yul\":1467:1468   */\n  0x00\n    /* \"#utility.yul\":1492:1556   */\n  tag_38\n    /* \"#utility.yul\":1548:1555   */\n  dup6\n    /* \"#utility.yul\":1539:1545   */\n  dup3\n    /* \"#utility.yul\":1528:1537   */\n  dup7\n    /* \"#utility.yul\":1524:1546   */\n  add\n    /* \"#utility.yul\":1492:1556   */\n  tag_12\n  jump\t// in\ntag_38:\n    /* \"#utility.yul\":1482:1556   */\n  swap3\n  pop\n    /* \"#utility.yul\":1438:1566   */\n  pop\n    /* \"#utility.yul\":1605:1607   */\n  0x20\n    /* \"#utility.yul\":1631:1695   */\n  tag_39\n    /* \"#utility.yul\":1687:1694   */\n  dup6\n    /* \"#utility.yul\":1678:1684   */\n  dup3\n    /* \"#utility.yul\":1667:1676   */\n  dup7\n    /* \"#utility.yul\":1663:1685   */\n  add\n    /* \"#utility.yul\":1631:1695   */\n  tag_16\n  jump\t// in\ntag_39:\n    /* \"#utility.yul\":1621:1695   */\n  swap2\n  pop\n    /* \"#utility.yul\":1576:1705   */\n  pop\n    /* \"#utility.yul\":1205:1712   */\n  swap3\n  pop\n  swap3\n  swap1\n  pop\n  jump\t// out\n    /* \"Campaign.sol\":423:2727  contract Campaign {... */\ntag_6:\n  dataSize(sub_0)\n  dup1\n  dataOffset(sub_0)\n  0x00\n  codecopy\n  0x00\n  return\nstop\n\nsub_0: assembly {\n        /* \"Campaign.sol\":423:2727  contract Campaign {... */\n      mstore(0x40, 0x80)\n      jumpi(tag_1, lt(calldatasize, 0x04))\n      shr(0xe0, calldataload(0x00))\n      dup1\n      0x81d12c58\n      gt\n      tag_13\n      jumpi\n      dup1\n      0x81d12c58\n      eq\n      tag_7\n      jumpi\n      dup1\n      0x82fde093\n      eq\n      tag_8\n      jumpi\n      dup1\n      0x8a9cfd55\n      eq\n      tag_9\n      jumpi\n      dup1\n      0x937e09b1\n      eq\n      tag_10\n      jumpi\n      dup1\n      0xd7bb99ba\n      eq\n      tag_11\n      jumpi\n      dup1\n      0xd7d1bbdb\n      eq\n      tag_12\n      jumpi\n      jump(tag_1)\n    tag_13:\n      dup1\n      0x03441006\n      eq\n      tag_2\n      jumpi\n      dup1\n      0x0a144391\n      eq\n      tag_3\n      jumpi\n      dup1\n      0x3fad1834\n      eq\n      tag_4\n      jumpi\n      dup1\n      0x4051ddac\n      eq\n      tag_5\n      jumpi\n      dup1\n      0x481c6a75\n      eq\n      tag_6\n      jumpi\n    tag_1:\n      0x00\n      dup1\n      revert\n        /* \"Campaign.sol\":1990:2350  function finalizeRequest(uint index) public restricted {... */\n    tag_2:\n      callvalue\n      dup1\n      iszero\n      tag_14\n      jumpi\n      0x00\n      dup1\n      revert\n    tag_14:\n      pop\n      tag_15\n      0x04\n      dup1\n      calldatasize\n      sub\n      dup2\n      add\n      swap1\n      tag_16\n      swap2\n      swap1\n      tag_17\n      jump\t// in\n    tag_16:\n      tag_18\n      jump\t// in\n    tag_15:\n      stop\n        /* \"Campaign.sol\":741:782  mapping(address => bool) public approvers */\n    tag_3:\n      callvalue\n      dup1\n      iszero\n      tag_19\n      jumpi\n      0x00\n      dup1\n      revert\n    tag_19:\n      pop\n      tag_20\n      0x04\n      dup1\n      calldatasize\n      sub\n      dup2\n      add\n      swap1\n      tag_21\n      swap2\n      swap1\n      tag_22\n      jump\t// in\n    tag_21:\n      tag_23\n      jump\t// in\n    tag_20:\n      mload(0x40)\n      tag_24\n      swap2\n      swap1\n      tag_25\n      jump\t// in\n    tag_24:\n      mload(0x40)\n      dup1\n      swap2\n      sub\n      swap1\n      return\n        /* \"Campaign.sol\":2632:2725  function getRequestCount() public view returns (uint) {... */\n    tag_4:\n      callvalue\n      dup1\n      iszero\n      tag_26\n      jumpi\n      0x00\n      dup1\n      revert\n    tag_26:\n      pop\n      tag_27\n      tag_28\n      jump\t// in\n    tag_27:\n      mload(0x40)\n      tag_29\n      swap2\n      swap1\n      tag_30\n      jump\t// in\n    tag_29:\n      mload(0x40)\n      dup1\n      swap2\n      sub\n      swap1\n      return\n        /* \"Campaign.sol\":2356:2626  function getSummary() public view returns (... */\n    tag_5:\n      callvalue\n      dup1\n      iszero\n      tag_31\n      jumpi\n      0x00\n      dup1\n      revert\n    tag_31:\n      pop\n      tag_32\n      tag_33\n      jump\t// in\n    tag_32:\n      mload(0x40)\n      tag_34\n      swap6\n      swap5\n      swap4\n      swap3\n      swap2\n      swap1\n      tag_35\n      jump\t// in\n    tag_34:\n      mload(0x40)\n      dup1\n      swap2\n      sub\n      swap1\n      return\n        /* \"Campaign.sol\":676:698  address public manager */\n    tag_6:\n      callvalue\n      dup1\n      iszero\n      tag_36\n      jumpi\n      0x00\n      dup1\n      revert\n    tag_36:\n      pop\n      tag_37\n      tag_38\n      jump\t// in\n    tag_37:\n      mload(0x40)\n      tag_39\n      swap2\n      swap1\n      tag_40\n      jump\t// in\n    tag_39:\n      mload(0x40)\n      dup1\n      swap2\n      sub\n      swap1\n      return\n        /* \"Campaign.sol\":645:670  Request[] public requests */\n    tag_7:\n      callvalue\n      dup1\n      iszero\n      tag_41\n      jumpi\n      0x00\n      dup1\n      revert\n    tag_41:\n      pop\n      tag_42\n      0x04\n      dup1\n      calldatasize\n      sub\n      dup2\n      add\n      swap1\n      tag_43\n      swap2\n      swap1\n      tag_17\n      jump\t// in\n    tag_43:\n      tag_44\n      jump\t// in\n    tag_42:\n      mload(0x40)\n      tag_45\n      swap6\n      swap5\n      swap4\n      swap3\n      swap2\n      swap1\n      tag_46\n      jump\t// in\n    tag_45:\n      mload(0x40)\n      dup1\n      swap2\n      sub\n      swap1\n      return\n        /* \"Campaign.sol\":788:814  uint public approversCount */\n    tag_8:\n      callvalue\n      dup1\n      iszero\n      tag_47\n      jumpi\n      0x00\n      dup1\n      revert\n    tag_47:\n      pop\n      tag_48\n      tag_49\n      jump\t// in\n    tag_48:\n      mload(0x40)\n      tag_50\n      swap2\n      swap1\n      tag_30\n      jump\t// in\n    tag_50:\n      mload(0x40)\n      dup1\n      swap2\n      sub\n      swap1\n      return\n        /* \"Campaign.sol\":1260:1647  function createRequest(... */\n    tag_9:\n      callvalue\n      dup1\n      iszero\n      tag_51\n      jumpi\n      0x00\n      dup1\n      revert\n    tag_51:\n      pop\n      tag_52\n      0x04\n      dup1\n      calldatasize\n      sub\n      dup2\n      add\n      swap1\n      tag_53\n      swap2\n      swap1\n      tag_54\n      jump\t// in\n    tag_53:\n      tag_55\n      jump\t// in\n    tag_52:\n      stop\n        /* \"Campaign.sol\":704:735  uint public minimumContribution */\n    tag_10:\n      callvalue\n      dup1\n      iszero\n      tag_56\n      jumpi\n      0x00\n      dup1\n      revert\n    tag_56:\n      pop\n      tag_57\n      tag_58\n      jump\t// in\n    tag_57:\n      mload(0x40)\n      tag_59\n      swap2\n      swap1\n      tag_30\n      jump\t// in\n    tag_59:\n      mload(0x40)\n      dup1\n      swap2\n      sub\n      swap1\n      return\n        /* \"Campaign.sol\":1058:1254  function contribute() public payable {... */\n    tag_11:\n      tag_60\n      tag_61\n      jump\t// in\n    tag_60:\n      stop\n        /* \"Campaign.sol\":1653:1984  function approveRequest(uint index) public {... */\n    tag_12:\n      callvalue\n      dup1\n      iszero\n      tag_62\n      jumpi\n      0x00\n      dup1\n      revert\n    tag_62:\n      pop\n      tag_63\n      0x04\n      dup1\n      calldatasize\n      sub\n      dup2\n      add\n      swap1\n      tag_64\n      swap2\n      swap1\n      tag_17\n      jump\t// in\n    tag_64:\n      tag_65\n      jump\t// in\n    tag_63:\n      stop\n        /* \"Campaign.sol\":1990:2350  function finalizeRequest(uint index) public restricted {... */\n    tag_18:\n        /* \"Campaign.sol\":875:882  manager */\n      0x01\n      0x00\n      swap1\n      sload\n      swap1\n      0x0100\n      exp\n      swap1\n      div\n      0xffffffffffffffffffffffffffffffffffffffff\n      and\n        /* \"Campaign.sol\":861:882  msg.sender == manager */\n      0xffffffffffffffffffffffffffffffffffffffff\n      and\n        /* \"Campaign.sol\":861:871  msg.sender */\n      caller\n        /* \"Campaign.sol\":861:882  msg.sender == manager */\n      0xffffffffffffffffffffffffffffffffffffffff\n      and\n      eq\n        /* \"Campaign.sol\":853:912  require(msg.sender == manager, \"Caller is not the manager\") */\n      tag_67\n      jumpi\n      mload(0x40)\n      0x08c379a000000000000000000000000000000000000000000000000000000000\n      dup2\n      mstore\n      0x04\n      add\n      tag_68\n      swap1\n      tag_69\n      jump\t// in\n    tag_68:\n      mload(0x40)\n      dup1\n      swap2\n      sub\n      swap1\n      revert\n    tag_67:\n        /* \"Campaign.sol\":2055:2078  Request storage request */\n      0x00\n        /* \"Campaign.sol\":2081:2089  requests */\n      dup1\n        /* \"Campaign.sol\":2090:2095  index */\n      dup3\n        /* \"Campaign.sol\":2081:2096  requests[index] */\n      dup2\n      sload\n      dup2\n      lt\n      tag_71\n      jumpi\n      tag_72\n      tag_73\n      jump\t// in\n    tag_72:\n    tag_71:\n      swap1\n      0x00\n      mstore\n      keccak256(0x00, 0x20)\n      swap1\n      0x05\n      mul\n      add\n        /* \"Campaign.sol\":2055:2096  Request storage request = requests[index] */\n      swap1\n      pop\n        /* \"Campaign.sol\":2157:2158  2 */\n      0x02\n        /* \"Campaign.sol\":2140:2154  approversCount */\n      sload(0x04)\n        /* \"Campaign.sol\":2140:2158  approversCount / 2 */\n      tag_75\n      swap2\n      swap1\n      tag_76\n      jump\t// in\n    tag_75:\n        /* \"Campaign.sol\":2115:2122  request */\n      dup2\n        /* \"Campaign.sol\":2115:2136  request.approvalCount */\n      0x03\n      add\n      sload\n        /* \"Campaign.sol\":2115:2159  request.approvalCount > (approversCount / 2) */\n      gt\n        /* \"Campaign.sol\":2107:2184  require(request.approvalCount > (approversCount / 2), \"Not enough approvals\") */\n      tag_77\n      jumpi\n      mload(0x40)\n      0x08c379a000000000000000000000000000000000000000000000000000000000\n      dup2\n      mstore\n      0x04\n      add\n      tag_78\n      swap1\n      tag_79\n      jump\t// in\n    tag_78:\n      mload(0x40)\n      dup1\n      swap2\n      sub\n      swap1\n      revert\n    tag_77:\n        /* \"Campaign.sol\":2203:2210  request */\n      dup1\n        /* \"Campaign.sol\":2203:2219  request.complete */\n      0x02\n      add\n      0x14\n      swap1\n      sload\n      swap1\n      0x0100\n      exp\n      swap1\n      div\n      0xff\n      and\n        /* \"Campaign.sol\":2202:2219  !request.complete */\n      iszero\n        /* \"Campaign.sol\":2194:2249  require(!request.complete, \"Request already completed\") */\n      tag_80\n      jumpi\n      mload(0x40)\n      0x08c379a000000000000000000000000000000000000000000000000000000000\n      dup2\n      mstore\n      0x04\n      add\n      tag_81\n      swap1\n      tag_82\n      jump\t// in\n    tag_81:\n      mload(0x40)\n      dup1\n      swap2\n      sub\n      swap1\n      revert\n    tag_80:\n        /* \"Campaign.sol\":2268:2275  request */\n      dup1\n        /* \"Campaign.sol\":2268:2285  request.recipient */\n      0x02\n      add\n      0x00\n      swap1\n      sload\n      swap1\n      0x0100\n      exp\n      swap1\n      div\n      0xffffffffffffffffffffffffffffffffffffffff\n      and\n        /* \"Campaign.sol\":2260:2295  payable(request.recipient).transfer */\n      0xffffffffffffffffffffffffffffffffffffffff\n      and\n        /* \"Campaign.sol\":2260:2310  payable(request.recipient).transfer(request.value) */\n      0x08fc\n        /* \"Campaign.sol\":2296:2303  request */\n      dup3\n        /* \"Campaign.sol\":2296:2309  request.value */\n      0x01\n      add\n      sload\n        /* \"Campaign.sol\":2260:2310  payable(request.recipient).transfer(request.value) */\n      swap1\n      dup2\n      iszero\n      mul\n      swap1\n      mload(0x40)\n      0x00\n      mload(0x40)\n      dup1\n      dup4\n      sub\n      dup2\n      dup6\n      dup9\n      dup9\n      call\n      swap4\n      pop\n      pop\n      pop\n      pop\n      iszero\n      dup1\n      iszero\n      tag_84\n      jumpi\n      returndatasize\n      0x00\n      dup1\n      returndatacopy\n      revert(0x00, returndatasize)\n    tag_84:\n      pop\n        /* \"Campaign.sol\":2339:2343  true */\n      0x01\n        /* \"Campaign.sol\":2320:2327  request */\n      dup2\n        /* \"Campaign.sol\":2320:2336  request.complete */\n      0x02\n      add\n      0x14\n        /* \"Campaign.sol\":2320:2343  request.complete = true */\n      0x0100\n      exp\n      dup2\n      sload\n      dup2\n      0xff\n      mul\n      not\n      and\n      swap1\n      dup4\n      iszero\n      iszero\n      mul\n      or\n      swap1\n      sstore\n      pop\n        /* \"Campaign.sol\":2045:2350  {... */\n      pop\n        /* \"Campaign.sol\":1990:2350  function finalizeRequest(uint index) public restricted {... */\n      pop\n      jump\t// out\n        /* \"Campaign.sol\":741:782  mapping(address => bool) public approvers */\n    tag_23:\n      mstore(0x20, 0x03)\n      dup1\n      0x00\n      mstore\n      keccak256(0x00, 0x40)\n      0x00\n      swap2\n      pop\n      sload\n      swap1\n      0x0100\n      exp\n      swap1\n      div\n      0xff\n      and\n      dup2\n      jump\t// out\n        /* \"Campaign.sol\":2632:2725  function getRequestCount() public view returns (uint) {... */\n    tag_28:\n        /* \"Campaign.sol\":2680:2684  uint */\n      0x00\n        /* \"Campaign.sol\":2703:2711  requests */\n      dup1\n        /* \"Campaign.sol\":2703:2718  requests.length */\n      dup1\n      sload\n      swap1\n      pop\n        /* \"Campaign.sol\":2696:2718  return requests.length */\n      swap1\n      pop\n        /* \"Campaign.sol\":2632:2725  function getRequestCount() public view returns (uint) {... */\n      swap1\n      jump\t// out\n        /* \"Campaign.sol\":2356:2626  function getSummary() public view returns (... */\n    tag_33:\n        /* \"Campaign.sol\":2408:2412  uint */\n      0x00\n        /* \"Campaign.sol\":2414:2418  uint */\n      dup1\n        /* \"Campaign.sol\":2420:2424  uint */\n      0x00\n        /* \"Campaign.sol\":2426:2430  uint */\n      dup1\n        /* \"Campaign.sol\":2432:2439  address */\n      0x00\n        /* \"Campaign.sol\":2477:2496  minimumContribution */\n      sload(0x02)\n        /* \"Campaign.sol\":2510:2531  address(this).balance */\n      selfbalance\n        /* \"Campaign.sol\":2545:2553  requests */\n      0x00\n        /* \"Campaign.sol\":2545:2560  requests.length */\n      dup1\n      sload\n      swap1\n      pop\n        /* \"Campaign.sol\":2574:2588  approversCount */\n      sload(0x04)\n        /* \"Campaign.sol\":2602:2609  manager */\n      0x01\n      0x00\n      swap1\n      sload\n      swap1\n      0x0100\n      exp\n      swap1\n      div\n      0xffffffffffffffffffffffffffffffffffffffff\n      and\n        /* \"Campaign.sol\":2456:2619  return (... */\n      swap5\n      pop\n      swap5\n      pop\n      swap5\n      pop\n      swap5\n      pop\n      swap5\n      pop\n        /* \"Campaign.sol\":2356:2626  function getSummary() public view returns (... */\n      swap1\n      swap2\n      swap3\n      swap4\n      swap5\n      jump\t// out\n        /* \"Campaign.sol\":676:698  address public manager */\n    tag_38:\n      0x01\n      0x00\n      swap1\n      sload\n      swap1\n      0x0100\n      exp\n      swap1\n      div\n      0xffffffffffffffffffffffffffffffffffffffff\n      and\n      dup2\n      jump\t// out\n        /* \"Campaign.sol\":645:670  Request[] public requests */\n    tag_44:\n      0x00\n      dup2\n      dup2\n      sload\n      dup2\n      lt\n      tag_87\n      jumpi\n      0x00\n      dup1\n      revert\n    tag_87:\n      swap1\n      0x00\n      mstore\n      keccak256(0x00, 0x20)\n      swap1\n      0x05\n      mul\n      add\n      0x00\n      swap2\n      pop\n      swap1\n      pop\n      dup1\n      0x00\n      add\n      dup1\n      sload\n      tag_89\n      swap1\n      tag_90\n      jump\t// in\n    tag_89:\n      dup1\n      0x1f\n      add\n      0x20\n      dup1\n      swap2\n      div\n      mul\n      0x20\n      add\n      mload(0x40)\n      swap1\n      dup2\n      add\n      0x40\n      mstore\n      dup1\n      swap3\n      swap2\n      swap1\n      dup2\n      dup2\n      mstore\n      0x20\n      add\n      dup3\n      dup1\n      sload\n      tag_91\n      swap1\n      tag_90\n      jump\t// in\n    tag_91:\n      dup1\n      iszero\n      tag_92\n      jumpi\n      dup1\n      0x1f\n      lt\n      tag_93\n      jumpi\n      0x0100\n      dup1\n      dup4\n      sload\n      div\n      mul\n      dup4\n      mstore\n      swap2\n      0x20\n      add\n      swap2\n      jump(tag_92)\n    tag_93:\n      dup3\n      add\n      swap2\n      swap1\n      0x00\n      mstore\n      keccak256(0x00, 0x20)\n      swap1\n    tag_94:\n      dup2\n      sload\n      dup2\n      mstore\n      swap1\n      0x01\n      add\n      swap1\n      0x20\n      add\n      dup1\n      dup4\n      gt\n      tag_94\n      jumpi\n      dup3\n      swap1\n      sub\n      0x1f\n      and\n      dup3\n      add\n      swap2\n    tag_92:\n      pop\n      pop\n      pop\n      pop\n      pop\n      swap1\n      dup1\n      0x01\n      add\n      sload\n      swap1\n      dup1\n      0x02\n      add\n      0x00\n      swap1\n      sload\n      swap1\n      0x0100\n      exp\n      swap1\n      div\n      0xffffffffffffffffffffffffffffffffffffffff\n      and\n      swap1\n      dup1\n      0x02\n      add\n      0x14\n      swap1\n      sload\n      swap1\n      0x0100\n      exp\n      swap1\n      div\n      0xff\n      and\n      swap1\n      dup1\n      0x03\n      add\n      sload\n      swap1\n      pop\n      dup6\n      jump\t// out\n        /* \"Campaign.sol\":788:814  uint public approversCount */\n    tag_49:\n      sload(0x04)\n      dup2\n      jump\t// out\n        /* \"Campaign.sol\":1260:1647  function createRequest(... */\n    tag_55:\n        /* \"Campaign.sol\":875:882  manager */\n      0x01\n      0x00\n      swap1\n      sload\n      swap1\n      0x0100\n      exp\n      swap1\n      div\n      0xffffffffffffffffffffffffffffffffffffffff\n      and\n        /* \"Campaign.sol\":861:882  msg.sender == manager */\n      0xffffffffffffffffffffffffffffffffffffffff\n      and\n        /* \"Campaign.sol\":861:871  msg.sender */\n      caller\n        /* \"Campaign.sol\":861:882  msg.sender == manager */\n      0xffffffffffffffffffffffffffffffffffffffff\n      and\n      eq\n        /* \"Campaign.sol\":853:912  require(msg.sender == manager, \"Caller is not the manager\") */\n      tag_96\n      jumpi\n      mload(0x40)\n      0x08c379a000000000000000000000000000000000000000000000000000000000\n      dup2\n      mstore\n      0x04\n      add\n      tag_97\n      swap1\n      tag_69\n      jump\t// in\n    tag_97:\n      mload(0x40)\n      dup1\n      swap2\n      sub\n      swap1\n      revert\n    tag_96:\n        /* \"Campaign.sol\":1399:1425  Request storage newRequest */\n      0x00\n        /* \"Campaign.sol\":1428:1436  requests */\n      dup1\n        /* \"Campaign.sol\":1428:1443  requests.push() */\n      0x01\n      dup2\n      0x01\n      dup2\n      sload\n      add\n      dup1\n      dup3\n      sstore\n      dup1\n      swap2\n      pop\n      pop\n      sub\n      swap1\n      0x00\n      mstore\n      keccak256(0x00, 0x20)\n      swap1\n      0x05\n      mul\n      add\n        /* \"Campaign.sol\":1399:1443  Request storage newRequest = requests.push() */\n      swap1\n      pop\n        /* \"Campaign.sol\":1478:1489  description */\n      dup4\n        /* \"Campaign.sol\":1453:1463  newRequest */\n      dup2\n        /* \"Campaign.sol\":1453:1475  newRequest.description */\n      0x00\n      add\n        /* \"Campaign.sol\":1453:1489  newRequest.description = description */\n      swap1\n      dup2\n      tag_100\n      swap2\n      swap1\n      tag_101\n      jump\t// in\n    tag_100:\n      pop\n        /* \"Campaign.sol\":1518:1523  value */\n      dup3\n        /* \"Campaign.sol\":1499:1509  newRequest */\n      dup2\n        /* \"Campaign.sol\":1499:1515  newRequest.value */\n      0x01\n      add\n        /* \"Campaign.sol\":1499:1523  newRequest.value = value */\n      dup2\n      swap1\n      sstore\n      pop\n        /* \"Campaign.sol\":1556:1565  recipient */\n      dup2\n        /* \"Campaign.sol\":1533:1543  newRequest */\n      dup2\n        /* \"Campaign.sol\":1533:1553  newRequest.recipient */\n      0x02\n      add\n      0x00\n        /* \"Campaign.sol\":1533:1565  newRequest.recipient = recipient */\n      0x0100\n      exp\n      dup2\n      sload\n      dup2\n      0xffffffffffffffffffffffffffffffffffffffff\n      mul\n      not\n      and\n      swap1\n      dup4\n      0xffffffffffffffffffffffffffffffffffffffff\n      and\n      mul\n      or\n      swap1\n      sstore\n      pop\n        /* \"Campaign.sol\":1597:1602  false */\n      0x00\n        /* \"Campaign.sol\":1575:1585  newRequest */\n      dup2\n        /* \"Campaign.sol\":1575:1594  newRequest.complete */\n      0x02\n      add\n      0x14\n        /* \"Campaign.sol\":1575:1602  newRequest.complete = false */\n      0x0100\n      exp\n      dup2\n      sload\n      dup2\n      0xff\n      mul\n      not\n      and\n      swap1\n      dup4\n      iszero\n      iszero\n      mul\n      or\n      swap1\n      sstore\n      pop\n        /* \"Campaign.sol\":1639:1640  0 */\n      0x00\n        /* \"Campaign.sol\":1612:1622  newRequest */\n      dup2\n        /* \"Campaign.sol\":1612:1636  newRequest.approvalCount */\n      0x03\n      add\n        /* \"Campaign.sol\":1612:1640  newRequest.approvalCount = 0 */\n      dup2\n      swap1\n      sstore\n      pop\n        /* \"Campaign.sol\":1389:1647  {... */\n      pop\n        /* \"Campaign.sol\":1260:1647  function createRequest(... */\n      pop\n      pop\n      pop\n      jump\t// out\n        /* \"Campaign.sol\":704:735  uint public minimumContribution */\n    tag_58:\n      sload(0x02)\n      dup2\n      jump\t// out\n        /* \"Campaign.sol\":1058:1254  function contribute() public payable {... */\n    tag_61:\n        /* \"Campaign.sol\":1125:1144  minimumContribution */\n      sload(0x02)\n        /* \"Campaign.sol\":1113:1122  msg.value */\n      callvalue\n        /* \"Campaign.sol\":1113:1144  msg.value > minimumContribution */\n      gt\n        /* \"Campaign.sol\":1105:1182  require(msg.value > minimumContribution, \"Contribution is less than minimum\") */\n      tag_103\n      jumpi\n      mload(0x40)\n      0x08c379a000000000000000000000000000000000000000000000000000000000\n      dup2\n      mstore\n      0x04\n      add\n      tag_104\n      swap1\n      tag_105\n      jump\t// in\n    tag_104:\n      mload(0x40)\n      dup1\n      swap2\n      sub\n      swap1\n      revert\n    tag_103:\n        /* \"Campaign.sol\":1217:1221  true */\n      0x01\n        /* \"Campaign.sol\":1193:1202  approvers */\n      0x03\n        /* \"Campaign.sol\":1193:1214  approvers[msg.sender] */\n      0x00\n        /* \"Campaign.sol\":1203:1213  msg.sender */\n      caller\n        /* \"Campaign.sol\":1193:1214  approvers[msg.sender] */\n      0xffffffffffffffffffffffffffffffffffffffff\n      and\n      0xffffffffffffffffffffffffffffffffffffffff\n      and\n      dup2\n      mstore\n      0x20\n      add\n      swap1\n      dup2\n      mstore\n      0x20\n      add\n      0x00\n      keccak256\n      0x00\n        /* \"Campaign.sol\":1193:1221  approvers[msg.sender] = true */\n      0x0100\n      exp\n      dup2\n      sload\n      dup2\n      0xff\n      mul\n      not\n      and\n      swap1\n      dup4\n      iszero\n      iszero\n      mul\n      or\n      swap1\n      sstore\n      pop\n        /* \"Campaign.sol\":1231:1245  approversCount */\n      0x04\n      0x00\n        /* \"Campaign.sol\":1231:1247  approversCount++ */\n      dup2\n      sload\n      dup1\n      swap3\n      swap2\n      swap1\n      tag_106\n      swap1\n      tag_107\n      jump\t// in\n    tag_106:\n      swap2\n      swap1\n      pop\n      sstore\n      pop\n        /* \"Campaign.sol\":1058:1254  function contribute() public payable {... */\n      jump\t// out\n        /* \"Campaign.sol\":1653:1984  function approveRequest(uint index) public {... */\n    tag_65:\n        /* \"Campaign.sol\":1706:1729  Request storage request */\n      0x00\n        /* \"Campaign.sol\":1732:1740  requests */\n      dup1\n        /* \"Campaign.sol\":1741:1746  index */\n      dup3\n        /* \"Campaign.sol\":1732:1747  requests[index] */\n      dup2\n      sload\n      dup2\n      lt\n      tag_109\n      jumpi\n      tag_110\n      tag_73\n      jump\t// in\n    tag_110:\n    tag_109:\n      swap1\n      0x00\n      mstore\n      keccak256(0x00, 0x20)\n      swap1\n      0x05\n      mul\n      add\n        /* \"Campaign.sol\":1706:1747  Request storage request = requests[index] */\n      swap1\n      pop\n        /* \"Campaign.sol\":1766:1775  approvers */\n      0x03\n        /* \"Campaign.sol\":1766:1787  approvers[msg.sender] */\n      0x00\n        /* \"Campaign.sol\":1776:1786  msg.sender */\n      caller\n        /* \"Campaign.sol\":1766:1787  approvers[msg.sender] */\n      0xffffffffffffffffffffffffffffffffffffffff\n      and\n      0xffffffffffffffffffffffffffffffffffffffff\n      and\n      dup2\n      mstore\n      0x20\n      add\n      swap1\n      dup2\n      mstore\n      0x20\n      add\n      0x00\n      keccak256\n      0x00\n      swap1\n      sload\n      swap1\n      0x0100\n      exp\n      swap1\n      div\n      0xff\n      and\n        /* \"Campaign.sol\":1758:1817  require(approvers[msg.sender], \"Caller is not an approver\") */\n      tag_112\n      jumpi\n      mload(0x40)\n      0x08c379a000000000000000000000000000000000000000000000000000000000\n      dup2\n      mstore\n      0x04\n      add\n      tag_113\n      swap1\n      tag_114\n      jump\t// in\n    tag_113:\n      mload(0x40)\n      dup1\n      swap2\n      sub\n      swap1\n      revert\n    tag_112:\n        /* \"Campaign.sol\":1836:1843  request */\n      dup1\n        /* \"Campaign.sol\":1836:1853  request.approvals */\n      0x04\n      add\n        /* \"Campaign.sol\":1836:1865  request.approvals[msg.sender] */\n      0x00\n        /* \"Campaign.sol\":1854:1864  msg.sender */\n      caller\n        /* \"Campaign.sol\":1836:1865  request.approvals[msg.sender] */\n      0xffffffffffffffffffffffffffffffffffffffff\n      and\n      0xffffffffffffffffffffffffffffffffffffffff\n      and\n      dup2\n      mstore\n      0x20\n      add\n      swap1\n      dup2\n      mstore\n      0x20\n      add\n      0x00\n      keccak256\n      0x00\n      swap1\n      sload\n      swap1\n      0x0100\n      exp\n      swap1\n      div\n      0xff\n      and\n        /* \"Campaign.sol\":1835:1865  !request.approvals[msg.sender] */\n      iszero\n        /* \"Campaign.sol\":1827:1897  require(!request.approvals[msg.sender], \"Caller has already approved\") */\n      tag_115\n      jumpi\n      mload(0x40)\n      0x08c379a000000000000000000000000000000000000000000000000000000000\n      dup2\n      mstore\n      0x04\n      add\n      tag_116\n      swap1\n      tag_117\n      jump\t// in\n    tag_116:\n      mload(0x40)\n      dup1\n      swap2\n      sub\n      swap1\n      revert\n    tag_115:\n        /* \"Campaign.sol\":1940:1944  true */\n      0x01\n        /* \"Campaign.sol\":1908:1915  request */\n      dup2\n        /* \"Campaign.sol\":1908:1925  request.approvals */\n      0x04\n      add\n        /* \"Campaign.sol\":1908:1937  request.approvals[msg.sender] */\n      0x00\n        /* \"Campaign.sol\":1926:1936  msg.sender */\n      caller\n        /* \"Campaign.sol\":1908:1937  request.approvals[msg.sender] */\n      0xffffffffffffffffffffffffffffffffffffffff\n      and\n      0xffffffffffffffffffffffffffffffffffffffff\n      and\n      dup2\n      mstore\n      0x20\n      add\n      swap1\n      dup2\n      mstore\n      0x20\n      add\n      0x00\n      keccak256\n      0x00\n        /* \"Campaign.sol\":1908:1944  request.approvals[msg.sender] = true */\n      0x0100\n      exp\n      dup2\n      sload\n      dup2\n      0xff\n      mul\n      not\n      and\n      swap1\n      dup4\n      iszero\n      iszero\n      mul\n      or\n      swap1\n      sstore\n      pop\n        /* \"Campaign.sol\":1954:1961  request */\n      dup1\n        /* \"Campaign.sol\":1954:1975  request.approvalCount */\n      0x03\n      add\n      0x00\n        /* \"Campaign.sol\":1954:1977  request.approvalCount++ */\n      dup2\n      sload\n      dup1\n      swap3\n      swap2\n      swap1\n      tag_118\n      swap1\n      tag_107\n      jump\t// in\n    tag_118:\n      swap2\n      swap1\n      pop\n      sstore\n      pop\n        /* \"Campaign.sol\":1696:1984  {... */\n      pop\n        /* \"Campaign.sol\":1653:1984  function approveRequest(uint index) public {... */\n      pop\n      jump\t// out\n        /* \"#utility.yul\":7:82   */\n    tag_119:\n        /* \"#utility.yul\":40:46   */\n      0x00\n        /* \"#utility.yul\":73:75   */\n      0x40\n        /* \"#utility.yul\":67:76   */\n      mload\n        /* \"#utility.yul\":57:76   */\n      swap1\n      pop\n        /* \"#utility.yul\":7:82   */\n      swap1\n      jump\t// out\n        /* \"#utility.yul\":88:205   */\n    tag_120:\n        /* \"#utility.yul\":197:198   */\n      0x00\n        /* \"#utility.yul\":194:195   */\n      dup1\n        /* \"#utility.yul\":187:199   */\n      revert\n        /* \"#utility.yul\":211:328   */\n    tag_121:\n        /* \"#utility.yul\":320:321   */\n      0x00\n        /* \"#utility.yul\":317:318   */\n      dup1\n        /* \"#utility.yul\":310:322   */\n      revert\n        /* \"#utility.yul\":334:411   */\n    tag_122:\n        /* \"#utility.yul\":371:378   */\n      0x00\n        /* \"#utility.yul\":400:405   */\n      dup2\n        /* \"#utility.yul\":389:405   */\n      swap1\n      pop\n        /* \"#utility.yul\":334:411   */\n      swap2\n      swap1\n      pop\n      jump\t// out\n        /* \"#utility.yul\":417:539   */\n    tag_123:\n        /* \"#utility.yul\":490:514   */\n      tag_183\n        /* \"#utility.yul\":508:513   */\n      dup2\n        /* \"#utility.yul\":490:514   */\n      tag_122\n      jump\t// in\n    tag_183:\n        /* \"#utility.yul\":483:488   */\n      dup2\n        /* \"#utility.yul\":480:515   */\n      eq\n        /* \"#utility.yul\":470:533   */\n      tag_184\n      jumpi\n        /* \"#utility.yul\":529:530   */\n      0x00\n        /* \"#utility.yul\":526:527   */\n      dup1\n        /* \"#utility.yul\":519:531   */\n      revert\n        /* \"#utility.yul\":470:533   */\n    tag_184:\n        /* \"#utility.yul\":417:539   */\n      pop\n      jump\t// out\n        /* \"#utility.yul\":545:684   */\n    tag_124:\n        /* \"#utility.yul\":591:596   */\n      0x00\n        /* \"#utility.yul\":629:635   */\n      dup2\n        /* \"#utility.yul\":616:636   */\n      calldataload\n        /* \"#utility.yul\":607:636   */\n      swap1\n      pop\n        /* \"#utility.yul\":645:678   */\n      tag_186\n        /* \"#utility.yul\":672:677   */\n      dup2\n        /* \"#utility.yul\":645:678   */\n      tag_123\n      jump\t// in\n    tag_186:\n        /* \"#utility.yul\":545:684   */\n      swap3\n      swap2\n      pop\n      pop\n      jump\t// out\n        /* \"#utility.yul\":690:1019   */\n    tag_17:\n        /* \"#utility.yul\":749:755   */\n      0x00\n        /* \"#utility.yul\":798:800   */\n      0x20\n        /* \"#utility.yul\":786:795   */\n      dup3\n        /* \"#utility.yul\":777:784   */\n      dup5\n        /* \"#utility.yul\":773:796   */\n      sub\n        /* \"#utility.yul\":769:801   */\n      slt\n        /* \"#utility.yul\":766:885   */\n      iszero\n      tag_188\n      jumpi\n        /* \"#utility.yul\":804:883   */\n      tag_189\n      tag_120\n      jump\t// in\n    tag_189:\n        /* \"#utility.yul\":766:885   */\n    tag_188:\n        /* \"#utility.yul\":924:925   */\n      0x00\n        /* \"#utility.yul\":949:1002   */\n      tag_190\n        /* \"#utility.yul\":994:1001   */\n      dup5\n        /* \"#utility.yul\":985:991   */\n      dup3\n        /* \"#utility.yul\":974:983   */\n      dup6\n        /* \"#utility.yul\":970:992   */\n      add\n        /* \"#utility.yul\":949:1002   */\n      tag_124\n      jump\t// in\n    tag_190:\n        /* \"#utility.yul\":939:1002   */\n      swap2\n      pop\n        /* \"#utility.yul\":895:1012   */\n      pop\n        /* \"#utility.yul\":690:1019   */\n      swap3\n      swap2\n      pop\n      pop\n      jump\t// out\n        /* \"#utility.yul\":1025:1151   */\n    tag_125:\n        /* \"#utility.yul\":1062:1069   */\n      0x00\n        /* \"#utility.yul\":1102:1144   */\n      0xffffffffffffffffffffffffffffffffffffffff\n        /* \"#utility.yul\":1095:1100   */\n      dup3\n        /* \"#utility.yul\":1091:1145   */\n      and\n        /* \"#utility.yul\":1080:1145   */\n      swap1\n      pop\n        /* \"#utility.yul\":1025:1151   */\n      swap2\n      swap1\n      pop\n      jump\t// out\n        /* \"#utility.yul\":1157:1253   */\n    tag_126:\n        /* \"#utility.yul\":1194:1201   */\n      0x00\n        /* \"#utility.yul\":1223:1247   */\n      tag_193\n        /* \"#utility.yul\":1241:1246   */\n      dup3\n        /* \"#utility.yul\":1223:1247   */\n      tag_125\n      jump\t// in\n    tag_193:\n        /* \"#utility.yul\":1212:1247   */\n      swap1\n      pop\n        /* \"#utility.yul\":1157:1253   */\n      swap2\n      swap1\n      pop\n      jump\t// out\n        /* \"#utility.yul\":1259:1381   */\n    tag_127:\n        /* \"#utility.yul\":1332:1356   */\n      tag_195\n        /* \"#utility.yul\":1350:1355   */\n      dup2\n        /* \"#utility.yul\":1332:1356   */\n      tag_126\n      jump\t// in\n    tag_195:\n        /* \"#utility.yul\":1325:1330   */\n      dup2\n        /* \"#utility.yul\":1322:1357   */\n      eq\n        /* \"#utility.yul\":1312:1375   */\n      tag_196\n      jumpi\n        /* \"#utility.yul\":1371:1372   */\n      0x00\n        /* \"#utility.yul\":1368:1369   */\n      dup1\n        /* \"#utility.yul\":1361:1373   */\n      revert\n        /* \"#utility.yul\":1312:1375   */\n    tag_196:\n        /* \"#utility.yul\":1259:1381   */\n      pop\n      jump\t// out\n        /* \"#utility.yul\":1387:1526   */\n    tag_128:\n        /* \"#utility.yul\":1433:1438   */\n      0x00\n        /* \"#utility.yul\":1471:1477   */\n      dup2\n        /* \"#utility.yul\":1458:1478   */\n      calldataload\n        /* \"#utility.yul\":1449:1478   */\n      swap1\n      pop\n        /* \"#utility.yul\":1487:1520   */\n      tag_198\n        /* \"#utility.yul\":1514:1519   */\n      dup2\n        /* \"#utility.yul\":1487:1520   */\n      tag_127\n      jump\t// in\n    tag_198:\n        /* \"#utility.yul\":1387:1526   */\n      swap3\n      swap2\n      pop\n      pop\n      jump\t// out\n        /* \"#utility.yul\":1532:1861   */\n    tag_22:\n        /* \"#utility.yul\":1591:1597   */\n      0x00\n        /* \"#utility.yul\":1640:1642   */\n      0x20\n        /* \"#utility.yul\":1628:1637   */\n      dup3\n        /* \"#utility.yul\":1619:1626   */\n      dup5\n        /* \"#utility.yul\":1615:1638   */\n      sub\n        /* \"#utility.yul\":1611:1643   */\n      slt\n        /* \"#utility.yul\":1608:1727   */\n      iszero\n      tag_200\n      jumpi\n        /* \"#utility.yul\":1646:1725   */\n      tag_201\n      tag_120\n      jump\t// in\n    tag_201:\n        /* \"#utility.yul\":1608:1727   */\n    tag_200:\n        /* \"#utility.yul\":1766:1767   */\n      0x00\n        /* \"#utility.yul\":1791:1844   */\n      tag_202\n        /* \"#utility.yul\":1836:1843   */\n      dup5\n        /* \"#utility.yul\":1827:1833   */\n      dup3\n        /* \"#utility.yul\":1816:1825   */\n      dup6\n        /* \"#utility.yul\":1812:1834   */\n      add\n        /* \"#utility.yul\":1791:1844   */\n      tag_128\n      jump\t// in\n    tag_202:\n        /* \"#utility.yul\":1781:1844   */\n      swap2\n      pop\n        /* \"#utility.yul\":1737:1854   */\n      pop\n        /* \"#utility.yul\":1532:1861   */\n      swap3\n      swap2\n      pop\n      pop\n      jump\t// out\n        /* \"#utility.yul\":1867:1957   */\n    tag_129:\n        /* \"#utility.yul\":1901:1908   */\n      0x00\n        /* \"#utility.yul\":1944:1949   */\n      dup2\n        /* \"#utility.yul\":1937:1950   */\n      iszero\n        /* \"#utility.yul\":1930:1951   */\n      iszero\n        /* \"#utility.yul\":1919:1951   */\n      swap1\n      pop\n        /* \"#utility.yul\":1867:1957   */\n      swap2\n      swap1\n      pop\n      jump\t// out\n        /* \"#utility.yul\":1963:2072   */\n    tag_130:\n        /* \"#utility.yul\":2044:2065   */\n      tag_205\n        /* \"#utility.yul\":2059:2064   */\n      dup2\n        /* \"#utility.yul\":2044:2065   */\n      tag_129\n      jump\t// in\n    tag_205:\n        /* \"#utility.yul\":2039:2042   */\n      dup3\n        /* \"#utility.yul\":2032:2066   */\n      mstore\n        /* \"#utility.yul\":1963:2072   */\n      pop\n      pop\n      jump\t// out\n        /* \"#utility.yul\":2078:2288   */\n    tag_25:\n        /* \"#utility.yul\":2165:2169   */\n      0x00\n        /* \"#utility.yul\":2203:2205   */\n      0x20\n        /* \"#utility.yul\":2192:2201   */\n      dup3\n        /* \"#utility.yul\":2188:2206   */\n      add\n        /* \"#utility.yul\":2180:2206   */\n      swap1\n      pop\n        /* \"#utility.yul\":2216:2281   */\n      tag_207\n        /* \"#utility.yul\":2278:2279   */\n      0x00\n        /* \"#utility.yul\":2267:2276   */\n      dup4\n        /* \"#utility.yul\":2263:2280   */\n      add\n        /* \"#utility.yul\":2254:2260   */\n      dup5\n        /* \"#utility.yul\":2216:2281   */\n      tag_130\n      jump\t// in\n    tag_207:\n        /* \"#utility.yul\":2078:2288   */\n      swap3\n      swap2\n      pop\n      pop\n      jump\t// out\n        /* \"#utility.yul\":2294:2412   */\n    tag_131:\n        /* \"#utility.yul\":2381:2405   */\n      tag_209\n        /* \"#utility.yul\":2399:2404   */\n      dup2\n        /* \"#utility.yul\":2381:2405   */\n      tag_122\n      jump\t// in\n    tag_209:\n        /* \"#utility.yul\":2376:2379   */\n      dup3\n        /* \"#utility.yul\":2369:2406   */\n      mstore\n        /* \"#utility.yul\":2294:2412   */\n      pop\n      pop\n      jump\t// out\n        /* \"#utility.yul\":2418:2640   */\n    tag_30:\n        /* \"#utility.yul\":2511:2515   */\n      0x00\n        /* \"#utility.yul\":2549:2551   */\n      0x20\n        /* \"#utility.yul\":2538:2547   */\n      dup3\n        /* \"#utility.yul\":2534:2552   */\n      add\n        /* \"#utility.yul\":2526:2552   */\n      swap1\n      pop\n        /* \"#utility.yul\":2562:2633   */\n      tag_211\n        /* \"#utility.yul\":2630:2631   */\n      0x00\n        /* \"#utility.yul\":2619:2628   */\n      dup4\n        /* \"#utility.yul\":2615:2632   */\n      add\n        /* \"#utility.yul\":2606:2612   */\n      dup5\n        /* \"#utility.yul\":2562:2633   */\n      tag_131\n      jump\t// in\n    tag_211:\n        /* \"#utility.yul\":2418:2640   */\n      swap3\n      swap2\n      pop\n      pop\n      jump\t// out\n        /* \"#utility.yul\":2646:2764   */\n    tag_132:\n        /* \"#utility.yul\":2733:2757   */\n      tag_213\n        /* \"#utility.yul\":2751:2756   */\n      dup2\n        /* \"#utility.yul\":2733:2757   */\n      tag_126\n      jump\t// in\n    tag_213:\n        /* \"#utility.yul\":2728:2731   */\n      dup3\n        /* \"#utility.yul\":2721:2758   */\n      mstore\n        /* \"#utility.yul\":2646:2764   */\n      pop\n      pop\n      jump\t// out\n        /* \"#utility.yul\":2770:3434   */\n    tag_35:\n        /* \"#utility.yul\":2975:2979   */\n      0x00\n        /* \"#utility.yul\":3013:3016   */\n      0xa0\n        /* \"#utility.yul\":3002:3011   */\n      dup3\n        /* \"#utility.yul\":2998:3017   */\n      add\n        /* \"#utility.yul\":2990:3017   */\n      swap1\n      pop\n        /* \"#utility.yul\":3027:3098   */\n      tag_215\n        /* \"#utility.yul\":3095:3096   */\n      0x00\n        /* \"#utility.yul\":3084:3093   */\n      dup4\n        /* \"#utility.yul\":3080:3097   */\n      add\n        /* \"#utility.yul\":3071:3077   */\n      dup9\n        /* \"#utility.yul\":3027:3098   */\n      tag_131\n      jump\t// in\n    tag_215:\n        /* \"#utility.yul\":3108:3180   */\n      tag_216\n        /* \"#utility.yul\":3176:3178   */\n      0x20\n        /* \"#utility.yul\":3165:3174   */\n      dup4\n        /* \"#utility.yul\":3161:3179   */\n      add\n        /* \"#utility.yul\":3152:3158   */\n      dup8\n        /* \"#utility.yul\":3108:3180   */\n      tag_131\n      jump\t// in\n    tag_216:\n        /* \"#utility.yul\":3190:3262   */\n      tag_217\n        /* \"#utility.yul\":3258:3260   */\n      0x40\n        /* \"#utility.yul\":3247:3256   */\n      dup4\n        /* \"#utility.yul\":3243:3261   */\n      add\n        /* \"#utility.yul\":3234:3240   */\n      dup7\n        /* \"#utility.yul\":3190:3262   */\n      tag_131\n      jump\t// in\n    tag_217:\n        /* \"#utility.yul\":3272:3344   */\n      tag_218\n        /* \"#utility.yul\":3340:3342   */\n      0x60\n        /* \"#utility.yul\":3329:3338   */\n      dup4\n        /* \"#utility.yul\":3325:3343   */\n      add\n        /* \"#utility.yul\":3316:3322   */\n      dup6\n        /* \"#utility.yul\":3272:3344   */\n      tag_131\n      jump\t// in\n    tag_218:\n        /* \"#utility.yul\":3354:3427   */\n      tag_219\n        /* \"#utility.yul\":3422:3425   */\n      0x80\n        /* \"#utility.yul\":3411:3420   */\n      dup4\n        /* \"#utility.yul\":3407:3426   */\n      add\n        /* \"#utility.yul\":3398:3404   */\n      dup5\n        /* \"#utility.yul\":3354:3427   */\n      tag_132\n      jump\t// in\n    tag_219:\n        /* \"#utility.yul\":2770:3434   */\n      swap7\n      swap6\n      pop\n      pop\n      pop\n      pop\n      pop\n      pop\n      jump\t// out\n        /* \"#utility.yul\":3440:3662   */\n    tag_40:\n        /* \"#utility.yul\":3533:3537   */\n      0x00\n        /* \"#utility.yul\":3571:3573   */\n      0x20\n        /* \"#utility.yul\":3560:3569   */\n      dup3\n        /* \"#utility.yul\":3556:3574   */\n      add\n        /* \"#utility.yul\":3548:3574   */\n      swap1\n      pop\n        /* \"#utility.yul\":3584:3655   */\n      tag_221\n        /* \"#utility.yul\":3652:3653   */\n      0x00\n        /* \"#utility.yul\":3641:3650   */\n      dup4\n        /* \"#utility.yul\":3637:3654   */\n      add\n        /* \"#utility.yul\":3628:3634   */\n      dup5\n        /* \"#utility.yul\":3584:3655   */\n      tag_132\n      jump\t// in\n    tag_221:\n        /* \"#utility.yul\":3440:3662   */\n      swap3\n      swap2\n      pop\n      pop\n      jump\t// out\n        /* \"#utility.yul\":3668:3767   */\n    tag_133:\n        /* \"#utility.yul\":3720:3726   */\n      0x00\n        /* \"#utility.yul\":3754:3759   */\n      dup2\n        /* \"#utility.yul\":3748:3760   */\n      mload\n        /* \"#utility.yul\":3738:3760   */\n      swap1\n      pop\n        /* \"#utility.yul\":3668:3767   */\n      swap2\n      swap1\n      pop\n      jump\t// out\n        /* \"#utility.yul\":3773:3942   */\n    tag_134:\n        /* \"#utility.yul\":3857:3868   */\n      0x00\n        /* \"#utility.yul\":3891:3897   */\n      dup3\n        /* \"#utility.yul\":3886:3889   */\n      dup3\n        /* \"#utility.yul\":3879:3898   */\n      mstore\n        /* \"#utility.yul\":3931:3935   */\n      0x20\n        /* \"#utility.yul\":3926:3929   */\n      dup3\n        /* \"#utility.yul\":3922:3936   */\n      add\n        /* \"#utility.yul\":3907:3936   */\n      swap1\n      pop\n        /* \"#utility.yul\":3773:3942   */\n      swap3\n      swap2\n      pop\n      pop\n      jump\t// out\n        /* \"#utility.yul\":3948:4087   */\n    tag_135:\n        /* \"#utility.yul\":4037:4043   */\n      dup3\n        /* \"#utility.yul\":4032:4035   */\n      dup2\n        /* \"#utility.yul\":4027:4030   */\n      dup4\n        /* \"#utility.yul\":4021:4044   */\n      mcopy\n        /* \"#utility.yul\":4078:4079   */\n      0x00\n        /* \"#utility.yul\":4069:4075   */\n      dup4\n        /* \"#utility.yul\":4064:4067   */\n      dup4\n        /* \"#utility.yul\":4060:4076   */\n      add\n        /* \"#utility.yul\":4053:4080   */\n      mstore\n        /* \"#utility.yul\":3948:4087   */\n      pop\n      pop\n      pop\n      jump\t// out\n        /* \"#utility.yul\":4093:4195   */\n    tag_136:\n        /* \"#utility.yul\":4134:4140   */\n      0x00\n        /* \"#utility.yul\":4185:4187   */\n      0x1f\n        /* \"#utility.yul\":4181:4188   */\n      not\n        /* \"#utility.yul\":4176:4178   */\n      0x1f\n        /* \"#utility.yul\":4169:4174   */\n      dup4\n        /* \"#utility.yul\":4165:4179   */\n      add\n        /* \"#utility.yul\":4161:4189   */\n      and\n        /* \"#utility.yul\":4151:4189   */\n      swap1\n      pop\n        /* \"#utility.yul\":4093:4195   */\n      swap2\n      swap1\n      pop\n      jump\t// out\n        /* \"#utility.yul\":4201:4578   */\n    tag_137:\n        /* \"#utility.yul\":4289:4292   */\n      0x00\n        /* \"#utility.yul\":4317:4356   */\n      tag_227\n        /* \"#utility.yul\":4350:4355   */\n      dup3\n        /* \"#utility.yul\":4317:4356   */\n      tag_133\n      jump\t// in\n    tag_227:\n        /* \"#utility.yul\":4372:4443   */\n      tag_228\n        /* \"#utility.yul\":4436:4442   */\n      dup2\n        /* \"#utility.yul\":4431:4434   */\n      dup6\n        /* \"#utility.yul\":4372:4443   */\n      tag_134\n      jump\t// in\n    tag_228:\n        /* \"#utility.yul\":4365:4443   */\n      swap4\n      pop\n        /* \"#utility.yul\":4452:4517   */\n      tag_229\n        /* \"#utility.yul\":4510:4516   */\n      dup2\n        /* \"#utility.yul\":4505:4508   */\n      dup6\n        /* \"#utility.yul\":4498:4502   */\n      0x20\n        /* \"#utility.yul\":4491:4496   */\n      dup7\n        /* \"#utility.yul\":4487:4503   */\n      add\n        /* \"#utility.yul\":4452:4517   */\n      tag_135\n      jump\t// in\n    tag_229:\n        /* \"#utility.yul\":4542:4571   */\n      tag_230\n        /* \"#utility.yul\":4564:4570   */\n      dup2\n        /* \"#utility.yul\":4542:4571   */\n      tag_136\n      jump\t// in\n    tag_230:\n        /* \"#utility.yul\":4537:4540   */\n      dup5\n        /* \"#utility.yul\":4533:4572   */\n      add\n        /* \"#utility.yul\":4526:4572   */\n      swap2\n      pop\n        /* \"#utility.yul\":4293:4578   */\n      pop\n        /* \"#utility.yul\":4201:4578   */\n      swap3\n      swap2\n      pop\n      pop\n      jump\t// out\n        /* \"#utility.yul\":4584:5327   */\n    tag_46:\n        /* \"#utility.yul\":4803:4807   */\n      0x00\n        /* \"#utility.yul\":4841:4844   */\n      0xa0\n        /* \"#utility.yul\":4830:4839   */\n      dup3\n        /* \"#utility.yul\":4826:4845   */\n      add\n        /* \"#utility.yul\":4818:4845   */\n      swap1\n      pop\n        /* \"#utility.yul\":4891:4900   */\n      dup2\n        /* \"#utility.yul\":4885:4889   */\n      dup2\n        /* \"#utility.yul\":4881:4901   */\n      sub\n        /* \"#utility.yul\":4877:4878   */\n      0x00\n        /* \"#utility.yul\":4866:4875   */\n      dup4\n        /* \"#utility.yul\":4862:4879   */\n      add\n        /* \"#utility.yul\":4855:4902   */\n      mstore\n        /* \"#utility.yul\":4919:4997   */\n      tag_232\n        /* \"#utility.yul\":4992:4996   */\n      dup2\n        /* \"#utility.yul\":4983:4989   */\n      dup9\n        /* \"#utility.yul\":4919:4997   */\n      tag_137\n      jump\t// in\n    tag_232:\n        /* \"#utility.yul\":4911:4997   */\n      swap1\n      pop\n        /* \"#utility.yul\":5007:5079   */\n      tag_233\n        /* \"#utility.yul\":5075:5077   */\n      0x20\n        /* \"#utility.yul\":5064:5073   */\n      dup4\n        /* \"#utility.yul\":5060:5078   */\n      add\n        /* \"#utility.yul\":5051:5057   */\n      dup8\n        /* \"#utility.yul\":5007:5079   */\n      tag_131\n      jump\t// in\n    tag_233:\n        /* \"#utility.yul\":5089:5161   */\n      tag_234\n        /* \"#utility.yul\":5157:5159   */\n      0x40\n        /* \"#utility.yul\":5146:5155   */\n      dup4\n        /* \"#utility.yul\":5142:5160   */\n      add\n        /* \"#utility.yul\":5133:5139   */\n      dup7\n        /* \"#utility.yul\":5089:5161   */\n      tag_132\n      jump\t// in\n    tag_234:\n        /* \"#utility.yul\":5171:5237   */\n      tag_235\n        /* \"#utility.yul\":5233:5235   */\n      0x60\n        /* \"#utility.yul\":5222:5231   */\n      dup4\n        /* \"#utility.yul\":5218:5236   */\n      add\n        /* \"#utility.yul\":5209:5215   */\n      dup6\n        /* \"#utility.yul\":5171:5237   */\n      tag_130\n      jump\t// in\n    tag_235:\n        /* \"#utility.yul\":5247:5320   */\n      tag_236\n        /* \"#utility.yul\":5315:5318   */\n      0x80\n        /* \"#utility.yul\":5304:5313   */\n      dup4\n        /* \"#utility.yul\":5300:5319   */\n      add\n        /* \"#utility.yul\":5291:5297   */\n      dup5\n        /* \"#utility.yul\":5247:5320   */\n      tag_131\n      jump\t// in\n    tag_236:\n        /* \"#utility.yul\":4584:5327   */\n      swap7\n      swap6\n      pop\n      pop\n      pop\n      pop\n      pop\n      pop\n      jump\t// out\n        /* \"#utility.yul\":5333:5450   */\n    tag_138:\n        /* \"#utility.yul\":5442:5443   */\n      0x00\n        /* \"#utility.yul\":5439:5440   */\n      dup1\n        /* \"#utility.yul\":5432:5444   */\n      revert\n        /* \"#utility.yul\":5456:5573   */\n    tag_139:\n        /* \"#utility.yul\":5565:5566   */\n      0x00\n        /* \"#utility.yul\":5562:5563   */\n      dup1\n        /* \"#utility.yul\":5555:5567   */\n      revert\n        /* \"#utility.yul\":5579:5759   */\n    tag_140:\n        /* \"#utility.yul\":5627:5704   */\n      0x4e487b7100000000000000000000000000000000000000000000000000000000\n        /* \"#utility.yul\":5624:5625   */\n      0x00\n        /* \"#utility.yul\":5617:5705   */\n      mstore\n        /* \"#utility.yul\":5724:5728   */\n      0x41\n        /* \"#utility.yul\":5721:5722   */\n      0x04\n        /* \"#utility.yul\":5714:5729   */\n      mstore\n        /* \"#utility.yul\":5748:5752   */\n      0x24\n        /* \"#utility.yul\":5745:5746   */\n      0x00\n        /* \"#utility.yul\":5738:5753   */\n      revert\n        /* \"#utility.yul\":5765:6046   */\n    tag_141:\n        /* \"#utility.yul\":5848:5875   */\n      tag_241\n        /* \"#utility.yul\":5870:5874   */\n      dup3\n        /* \"#utility.yul\":5848:5875   */\n      tag_136\n      jump\t// in\n    tag_241:\n        /* \"#utility.yul\":5840:5846   */\n      dup2\n        /* \"#utility.yul\":5836:5876   */\n      add\n        /* \"#utility.yul\":5978:5984   */\n      dup2\n        /* \"#utility.yul\":5966:5976   */\n      dup2\n        /* \"#utility.yul\":5963:5985   */\n      lt\n        /* \"#utility.yul\":5942:5960   */\n      0xffffffffffffffff\n        /* \"#utility.yul\":5930:5940   */\n      dup3\n        /* \"#utility.yul\":5927:5961   */\n      gt\n        /* \"#utility.yul\":5924:5986   */\n      or\n        /* \"#utility.yul\":5921:6009   */\n      iszero\n      tag_242\n      jumpi\n        /* \"#utility.yul\":5989:6007   */\n      tag_243\n      tag_140\n      jump\t// in\n    tag_243:\n        /* \"#utility.yul\":5921:6009   */\n    tag_242:\n        /* \"#utility.yul\":6029:6039   */\n      dup1\n        /* \"#utility.yul\":6025:6027   */\n      0x40\n        /* \"#utility.yul\":6018:6040   */\n      mstore\n        /* \"#utility.yul\":5808:6046   */\n      pop\n        /* \"#utility.yul\":5765:6046   */\n      pop\n      pop\n      jump\t// out\n        /* \"#utility.yul\":6052:6181   */\n    tag_142:\n        /* \"#utility.yul\":6086:6092   */\n      0x00\n        /* \"#utility.yul\":6113:6133   */\n      tag_245\n      tag_119\n      jump\t// in\n    tag_245:\n        /* \"#utility.yul\":6103:6133   */\n      swap1\n      pop\n        /* \"#utility.yul\":6142:6175   */\n      tag_246\n        /* \"#utility.yul\":6170:6174   */\n      dup3\n        /* \"#utility.yul\":6162:6168   */\n      dup3\n        /* \"#utility.yul\":6142:6175   */\n      tag_141\n      jump\t// in\n    tag_246:\n        /* \"#utility.yul\":6052:6181   */\n      swap2\n      swap1\n      pop\n      jump\t// out\n        /* \"#utility.yul\":6187:6495   */\n    tag_143:\n        /* \"#utility.yul\":6249:6253   */\n      0x00\n        /* \"#utility.yul\":6339:6357   */\n      0xffffffffffffffff\n        /* \"#utility.yul\":6331:6337   */\n      dup3\n        /* \"#utility.yul\":6328:6358   */\n      gt\n        /* \"#utility.yul\":6325:6381   */\n      iszero\n      tag_248\n      jumpi\n        /* \"#utility.yul\":6361:6379   */\n      tag_249\n      tag_140\n      jump\t// in\n    tag_249:\n        /* \"#utility.yul\":6325:6381   */\n    tag_248:\n        /* \"#utility.yul\":6399:6428   */\n      tag_250\n        /* \"#utility.yul\":6421:6427   */\n      dup3\n        /* \"#utility.yul\":6399:6428   */\n      tag_136\n      jump\t// in\n    tag_250:\n        /* \"#utility.yul\":6391:6428   */\n      swap1\n      pop\n        /* \"#utility.yul\":6483:6487   */\n      0x20\n        /* \"#utility.yul\":6477:6481   */\n      dup2\n        /* \"#utility.yul\":6473:6488   */\n      add\n        /* \"#utility.yul\":6465:6488   */\n      swap1\n      pop\n        /* \"#utility.yul\":6187:6495   */\n      swap2\n      swap1\n      pop\n      jump\t// out\n        /* \"#utility.yul\":6501:6649   */\n    tag_144:\n        /* \"#utility.yul\":6599:6605   */\n      dup3\n        /* \"#utility.yul\":6594:6597   */\n      dup2\n        /* \"#utility.yul\":6589:6592   */\n      dup4\n        /* \"#utility.yul\":6576:6606   */\n      calldatacopy\n        /* \"#utility.yul\":6640:6641   */\n      0x00\n        /* \"#utility.yul\":6631:6637   */\n      dup4\n        /* \"#utility.yul\":6626:6629   */\n      dup4\n        /* \"#utility.yul\":6622:6638   */\n      add\n        /* \"#utility.yul\":6615:6642   */\n      mstore\n        /* \"#utility.yul\":6501:6649   */\n      pop\n      pop\n      pop\n      jump\t// out\n        /* \"#utility.yul\":6655:7080   */\n    tag_145:\n        /* \"#utility.yul\":6733:6738   */\n      0x00\n        /* \"#utility.yul\":6758:6824   */\n      tag_253\n        /* \"#utility.yul\":6774:6823   */\n      tag_254\n        /* \"#utility.yul\":6816:6822   */\n      dup5\n        /* \"#utility.yul\":6774:6823   */\n      tag_143\n      jump\t// in\n    tag_254:\n        /* \"#utility.yul\":6758:6824   */\n      tag_142\n      jump\t// in\n    tag_253:\n        /* \"#utility.yul\":6749:6824   */\n      swap1\n      pop\n        /* \"#utility.yul\":6847:6853   */\n      dup3\n        /* \"#utility.yul\":6840:6845   */\n      dup2\n        /* \"#utility.yul\":6833:6854   */\n      mstore\n        /* \"#utility.yul\":6885:6889   */\n      0x20\n        /* \"#utility.yul\":6878:6883   */\n      dup2\n        /* \"#utility.yul\":6874:6890   */\n      add\n        /* \"#utility.yul\":6923:6926   */\n      dup5\n        /* \"#utility.yul\":6914:6920   */\n      dup5\n        /* \"#utility.yul\":6909:6912   */\n      dup5\n        /* \"#utility.yul\":6905:6921   */\n      add\n        /* \"#utility.yul\":6902:6927   */\n      gt\n        /* \"#utility.yul\":6899:7011   */\n      iszero\n      tag_255\n      jumpi\n        /* \"#utility.yul\":6930:7009   */\n      tag_256\n      tag_139\n      jump\t// in\n    tag_256:\n        /* \"#utility.yul\":6899:7011   */\n    tag_255:\n        /* \"#utility.yul\":7020:7074   */\n      tag_257\n        /* \"#utility.yul\":7067:7073   */\n      dup5\n        /* \"#utility.yul\":7062:7065   */\n      dup3\n        /* \"#utility.yul\":7057:7060   */\n      dup6\n        /* \"#utility.yul\":7020:7074   */\n      tag_144\n      jump\t// in\n    tag_257:\n        /* \"#utility.yul\":6739:7080   */\n      pop\n        /* \"#utility.yul\":6655:7080   */\n      swap4\n      swap3\n      pop\n      pop\n      pop\n      jump\t// out\n        /* \"#utility.yul\":7100:7440   */\n    tag_146:\n        /* \"#utility.yul\":7156:7161   */\n      0x00\n        /* \"#utility.yul\":7205:7208   */\n      dup3\n        /* \"#utility.yul\":7198:7202   */\n      0x1f\n        /* \"#utility.yul\":7190:7196   */\n      dup4\n        /* \"#utility.yul\":7186:7203   */\n      add\n        /* \"#utility.yul\":7182:7209   */\n      slt\n        /* \"#utility.yul\":7172:7294   */\n      tag_259\n      jumpi\n        /* \"#utility.yul\":7213:7292   */\n      tag_260\n      tag_138\n      jump\t// in\n    tag_260:\n        /* \"#utility.yul\":7172:7294   */\n    tag_259:\n        /* \"#utility.yul\":7330:7336   */\n      dup2\n        /* \"#utility.yul\":7317:7337   */\n      calldataload\n        /* \"#utility.yul\":7355:7434   */\n      tag_261\n        /* \"#utility.yul\":7430:7433   */\n      dup5\n        /* \"#utility.yul\":7422:7428   */\n      dup3\n        /* \"#utility.yul\":7415:7419   */\n      0x20\n        /* \"#utility.yul\":7407:7413   */\n      dup7\n        /* \"#utility.yul\":7403:7420   */\n      add\n        /* \"#utility.yul\":7355:7434   */\n      tag_145\n      jump\t// in\n    tag_261:\n        /* \"#utility.yul\":7346:7434   */\n      swap2\n      pop\n        /* \"#utility.yul\":7162:7440   */\n      pop\n        /* \"#utility.yul\":7100:7440   */\n      swap3\n      swap2\n      pop\n      pop\n      jump\t// out\n        /* \"#utility.yul\":7446:8245   */\n    tag_54:\n        /* \"#utility.yul\":7533:7539   */\n      0x00\n        /* \"#utility.yul\":7541:7547   */\n      dup1\n        /* \"#utility.yul\":7549:7555   */\n      0x00\n        /* \"#utility.yul\":7598:7600   */\n      0x60\n        /* \"#utility.yul\":7586:7595   */\n      dup5\n        /* \"#utility.yul\":7577:7584   */\n      dup7\n        /* \"#utility.yul\":7573:7596   */\n      sub\n        /* \"#utility.yul\":7569:7601   */\n      slt\n        /* \"#utility.yul\":7566:7685   */\n      iszero\n      tag_263\n      jumpi\n        /* \"#utility.yul\":7604:7683   */\n      tag_264\n      tag_120\n      jump\t// in\n    tag_264:\n        /* \"#utility.yul\":7566:7685   */\n    tag_263:\n        /* \"#utility.yul\":7752:7753   */\n      0x00\n        /* \"#utility.yul\":7741:7750   */\n      dup5\n        /* \"#utility.yul\":7737:7754   */\n      add\n        /* \"#utility.yul\":7724:7755   */\n      calldataload\n        /* \"#utility.yul\":7782:7800   */\n      0xffffffffffffffff\n        /* \"#utility.yul\":7774:7780   */\n      dup2\n        /* \"#utility.yul\":7771:7801   */\n      gt\n        /* \"#utility.yul\":7768:7885   */\n      iszero\n      tag_265\n      jumpi\n        /* \"#utility.yul\":7804:7883   */\n      tag_266\n      tag_121\n      jump\t// in\n    tag_266:\n        /* \"#utility.yul\":7768:7885   */\n    tag_265:\n        /* \"#utility.yul\":7909:7972   */\n      tag_267\n        /* \"#utility.yul\":7964:7971   */\n      dup7\n        /* \"#utility.yul\":7955:7961   */\n      dup3\n        /* \"#utility.yul\":7944:7953   */\n      dup8\n        /* \"#utility.yul\":7940:7962   */\n      add\n        /* \"#utility.yul\":7909:7972   */\n      tag_146\n      jump\t// in\n    tag_267:\n        /* \"#utility.yul\":7899:7972   */\n      swap4\n      pop\n        /* \"#utility.yul\":7695:7982   */\n      pop\n        /* \"#utility.yul\":8021:8023   */\n      0x20\n        /* \"#utility.yul\":8047:8100   */\n      tag_268\n        /* \"#utility.yul\":8092:8099   */\n      dup7\n        /* \"#utility.yul\":8083:8089   */\n      dup3\n        /* \"#utility.yul\":8072:8081   */\n      dup8\n        /* \"#utility.yul\":8068:8090   */\n      add\n        /* \"#utility.yul\":8047:8100   */\n      tag_124\n      jump\t// in\n    tag_268:\n        /* \"#utility.yul\":8037:8100   */\n      swap3\n      pop\n        /* \"#utility.yul\":7992:8110   */\n      pop\n        /* \"#utility.yul\":8149:8151   */\n      0x40\n        /* \"#utility.yul\":8175:8228   */\n      tag_269\n        /* \"#utility.yul\":8220:8227   */\n      dup7\n        /* \"#utility.yul\":8211:8217   */\n      dup3\n        /* \"#utility.yul\":8200:8209   */\n      dup8\n        /* \"#utility.yul\":8196:8218   */\n      add\n        /* \"#utility.yul\":8175:8228   */\n      tag_128\n      jump\t// in\n    tag_269:\n        /* \"#utility.yul\":8165:8228   */\n      swap2\n      pop\n        /* \"#utility.yul\":8120:8238   */\n      pop\n        /* \"#utility.yul\":7446:8245   */\n      swap3\n      pop\n      swap3\n      pop\n      swap3\n      jump\t// out\n        /* \"#utility.yul\":8251:8426   */\n    tag_147:\n        /* \"#utility.yul\":8391:8418   */\n      0x43616c6c6572206973206e6f7420746865206d616e6167657200000000000000\n        /* \"#utility.yul\":8387:8388   */\n      0x00\n        /* \"#utility.yul\":8379:8385   */\n      dup3\n        /* \"#utility.yul\":8375:8389   */\n      add\n        /* \"#utility.yul\":8368:8419   */\n      mstore\n        /* \"#utility.yul\":8251:8426   */\n      pop\n      jump\t// out\n        /* \"#utility.yul\":8432:8798   */\n    tag_148:\n        /* \"#utility.yul\":8574:8577   */\n      0x00\n        /* \"#utility.yul\":8595:8662   */\n      tag_272\n        /* \"#utility.yul\":8659:8661   */\n      0x19\n        /* \"#utility.yul\":8654:8657   */\n      dup4\n        /* \"#utility.yul\":8595:8662   */\n      tag_134\n      jump\t// in\n    tag_272:\n        /* \"#utility.yul\":8588:8662   */\n      swap2\n      pop\n        /* \"#utility.yul\":8671:8764   */\n      tag_273\n        /* \"#utility.yul\":8760:8763   */\n      dup3\n        /* \"#utility.yul\":8671:8764   */\n      tag_147\n      jump\t// in\n    tag_273:\n        /* \"#utility.yul\":8789:8791   */\n      0x20\n        /* \"#utility.yul\":8784:8787   */\n      dup3\n        /* \"#utility.yul\":8780:8792   */\n      add\n        /* \"#utility.yul\":8773:8792   */\n      swap1\n      pop\n        /* \"#utility.yul\":8432:8798   */\n      swap2\n      swap1\n      pop\n      jump\t// out\n        /* \"#utility.yul\":8804:9223   */\n    tag_69:\n        /* \"#utility.yul\":8970:8974   */\n      0x00\n        /* \"#utility.yul\":9008:9010   */\n      0x20\n        /* \"#utility.yul\":8997:9006   */\n      dup3\n        /* \"#utility.yul\":8993:9011   */\n      add\n        /* \"#utility.yul\":8985:9011   */\n      swap1\n      pop\n        /* \"#utility.yul\":9057:9066   */\n      dup2\n        /* \"#utility.yul\":9051:9055   */\n      dup2\n        /* \"#utility.yul\":9047:9067   */\n      sub\n        /* \"#utility.yul\":9043:9044   */\n      0x00\n        /* \"#utility.yul\":9032:9041   */\n      dup4\n        /* \"#utility.yul\":9028:9045   */\n      add\n        /* \"#utility.yul\":9021:9068   */\n      mstore\n        /* \"#utility.yul\":9085:9216   */\n      tag_275\n        /* \"#utility.yul\":9211:9215   */\n      dup2\n        /* \"#utility.yul\":9085:9216   */\n      tag_148\n      jump\t// in\n    tag_275:\n        /* \"#utility.yul\":9077:9216   */\n      swap1\n      pop\n        /* \"#utility.yul\":8804:9223   */\n      swap2\n      swap1\n      pop\n      jump\t// out\n        /* \"#utility.yul\":9229:9409   */\n    tag_73:\n        /* \"#utility.yul\":9277:9354   */\n      0x4e487b7100000000000000000000000000000000000000000000000000000000\n        /* \"#utility.yul\":9274:9275   */\n      0x00\n        /* \"#utility.yul\":9267:9355   */\n      mstore\n        /* \"#utility.yul\":9374:9378   */\n      0x32\n        /* \"#utility.yul\":9371:9372   */\n      0x04\n        /* \"#utility.yul\":9364:9379   */\n      mstore\n        /* \"#utility.yul\":9398:9402   */\n      0x24\n        /* \"#utility.yul\":9395:9396   */\n      0x00\n        /* \"#utility.yul\":9388:9403   */\n      revert\n        /* \"#utility.yul\":9415:9595   */\n    tag_149:\n        /* \"#utility.yul\":9463:9540   */\n      0x4e487b7100000000000000000000000000000000000000000000000000000000\n        /* \"#utility.yul\":9460:9461   */\n      0x00\n        /* \"#utility.yul\":9453:9541   */\n      mstore\n        /* \"#utility.yul\":9560:9564   */\n      0x12\n        /* \"#utility.yul\":9557:9558   */\n      0x04\n        /* \"#utility.yul\":9550:9565   */\n      mstore\n        /* \"#utility.yul\":9584:9588   */\n      0x24\n        /* \"#utility.yul\":9581:9582   */\n      0x00\n        /* \"#utility.yul\":9574:9589   */\n      revert\n        /* \"#utility.yul\":9601:9781   */\n    tag_150:\n        /* \"#utility.yul\":9649:9726   */\n      0x4e487b7100000000000000000000000000000000000000000000000000000000\n        /* \"#utility.yul\":9646:9647   */\n      0x00\n        /* \"#utility.yul\":9639:9727   */\n      mstore\n        /* \"#utility.yul\":9746:9750   */\n      0x11\n        /* \"#utility.yul\":9743:9744   */\n      0x04\n        /* \"#utility.yul\":9736:9751   */\n      mstore\n        /* \"#utility.yul\":9770:9774   */\n      0x24\n        /* \"#utility.yul\":9767:9768   */\n      0x00\n        /* \"#utility.yul\":9760:9775   */\n      revert\n        /* \"#utility.yul\":9787:9972   */\n    tag_76:\n        /* \"#utility.yul\":9827:9828   */\n      0x00\n        /* \"#utility.yul\":9844:9864   */\n      tag_280\n        /* \"#utility.yul\":9862:9863   */\n      dup3\n        /* \"#utility.yul\":9844:9864   */\n      tag_122\n      jump\t// in\n    tag_280:\n        /* \"#utility.yul\":9839:9864   */\n      swap2\n      pop\n        /* \"#utility.yul\":9878:9898   */\n      tag_281\n        /* \"#utility.yul\":9896:9897   */\n      dup4\n        /* \"#utility.yul\":9878:9898   */\n      tag_122\n      jump\t// in\n    tag_281:\n        /* \"#utility.yul\":9873:9898   */\n      swap3\n      pop\n        /* \"#utility.yul\":9917:9918   */\n      dup3\n        /* \"#utility.yul\":9907:9942   */\n      tag_282\n      jumpi\n        /* \"#utility.yul\":9922:9940   */\n      tag_283\n      tag_149\n      jump\t// in\n    tag_283:\n        /* \"#utility.yul\":9907:9942   */\n    tag_282:\n        /* \"#utility.yul\":9964:9965   */\n      dup3\n        /* \"#utility.yul\":9961:9962   */\n      dup3\n        /* \"#utility.yul\":9957:9966   */\n      div\n        /* \"#utility.yul\":9952:9966   */\n      swap1\n      pop\n        /* \"#utility.yul\":9787:9972   */\n      swap3\n      swap2\n      pop\n      pop\n      jump\t// out\n        /* \"#utility.yul\":9978:10148   */\n    tag_151:\n        /* \"#utility.yul\":10118:10140   */\n      0x4e6f7420656e6f75676820617070726f76616c73000000000000000000000000\n        /* \"#utility.yul\":10114:10115   */\n      0x00\n        /* \"#utility.yul\":10106:10112   */\n      dup3\n        /* \"#utility.yul\":10102:10116   */\n      add\n        /* \"#utility.yul\":10095:10141   */\n      mstore\n        /* \"#utility.yul\":9978:10148   */\n      pop\n      jump\t// out\n        /* \"#utility.yul\":10154:10520   */\n    tag_152:\n        /* \"#utility.yul\":10296:10299   */\n      0x00\n        /* \"#utility.yul\":10317:10384   */\n      tag_286\n        /* \"#utility.yul\":10381:10383   */\n      0x14\n        /* \"#utility.yul\":10376:10379   */\n      dup4\n        /* \"#utility.yul\":10317:10384   */\n      tag_134\n      jump\t// in\n    tag_286:\n        /* \"#utility.yul\":10310:10384   */\n      swap2\n      pop\n        /* \"#utility.yul\":10393:10486   */\n      tag_287\n        /* \"#utility.yul\":10482:10485   */\n      dup3\n        /* \"#utility.yul\":10393:10486   */\n      tag_151\n      jump\t// in\n    tag_287:\n        /* \"#utility.yul\":10511:10513   */\n      0x20\n        /* \"#utility.yul\":10506:10509   */\n      dup3\n        /* \"#utility.yul\":10502:10514   */\n      add\n        /* \"#utility.yul\":10495:10514   */\n      swap1\n      pop\n        /* \"#utility.yul\":10154:10520   */\n      swap2\n      swap1\n      pop\n      jump\t// out\n        /* \"#utility.yul\":10526:10945   */\n    tag_79:\n        /* \"#utility.yul\":10692:10696   */\n      0x00\n        /* \"#utility.yul\":10730:10732   */\n      0x20\n        /* \"#utility.yul\":10719:10728   */\n      dup3\n        /* \"#utility.yul\":10715:10733   */\n      add\n        /* \"#utility.yul\":10707:10733   */\n      swap1\n      pop\n        /* \"#utility.yul\":10779:10788   */\n      dup2\n        /* \"#utility.yul\":10773:10777   */\n      dup2\n        /* \"#utility.yul\":10769:10789   */\n      sub\n        /* \"#utility.yul\":10765:10766   */\n      0x00\n        /* \"#utility.yul\":10754:10763   */\n      dup4\n        /* \"#utility.yul\":10750:10767   */\n      add\n        /* \"#utility.yul\":10743:10790   */\n      mstore\n        /* \"#utility.yul\":10807:10938   */\n      tag_289\n        /* \"#utility.yul\":10933:10937   */\n      dup2\n        /* \"#utility.yul\":10807:10938   */\n      tag_152\n      jump\t// in\n    tag_289:\n        /* \"#utility.yul\":10799:10938   */\n      swap1\n      pop\n        /* \"#utility.yul\":10526:10945   */\n      swap2\n      swap1\n      pop\n      jump\t// out\n        /* \"#utility.yul\":10951:11126   */\n    tag_153:\n        /* \"#utility.yul\":11091:11118   */\n      0x5265717565737420616c726561647920636f6d706c6574656400000000000000\n        /* \"#utility.yul\":11087:11088   */\n      0x00\n        /* \"#utility.yul\":11079:11085   */\n      dup3\n        /* \"#utility.yul\":11075:11089   */\n      add\n        /* \"#utility.yul\":11068:11119   */\n      mstore\n        /* \"#utility.yul\":10951:11126   */\n      pop\n      jump\t// out\n        /* \"#utility.yul\":11132:11498   */\n    tag_154:\n        /* \"#utility.yul\":11274:11277   */\n      0x00\n        /* \"#utility.yul\":11295:11362   */\n      tag_292\n        /* \"#utility.yul\":11359:11361   */\n      0x19\n        /* \"#utility.yul\":11354:11357   */\n      dup4\n        /* \"#utility.yul\":11295:11362   */\n      tag_134\n      jump\t// in\n    tag_292:\n        /* \"#utility.yul\":11288:11362   */\n      swap2\n      pop\n        /* \"#utility.yul\":11371:11464   */\n      tag_293\n        /* \"#utility.yul\":11460:11463   */\n      dup3\n        /* \"#utility.yul\":11371:11464   */\n      tag_153\n      jump\t// in\n    tag_293:\n        /* \"#utility.yul\":11489:11491   */\n      0x20\n        /* \"#utility.yul\":11484:11487   */\n      dup3\n        /* \"#utility.yul\":11480:11492   */\n      add\n        /* \"#utility.yul\":11473:11492   */\n      swap1\n      pop\n        /* \"#utility.yul\":11132:11498   */\n      swap2\n      swap1\n      pop\n      jump\t// out\n        /* \"#utility.yul\":11504:11923   */\n    tag_82:\n        /* \"#utility.yul\":11670:11674   */\n      0x00\n        /* \"#utility.yul\":11708:11710   */\n      0x20\n        /* \"#utility.yul\":11697:11706   */\n      dup3\n        /* \"#utility.yul\":11693:11711   */\n      add\n        /* \"#utility.yul\":11685:11711   */\n      swap1\n      pop\n        /* \"#utility.yul\":11757:11766   */\n      dup2\n        /* \"#utility.yul\":11751:11755   */\n      dup2\n        /* \"#utility.yul\":11747:11767   */\n      sub\n        /* \"#utility.yul\":11743:11744   */\n      0x00\n        /* \"#utility.yul\":11732:11741   */\n      dup4\n        /* \"#utility.yul\":11728:11745   */\n      add\n        /* \"#utility.yul\":11721:11768   */\n      mstore\n        /* \"#utility.yul\":11785:11916   */\n      tag_295\n        /* \"#utility.yul\":11911:11915   */\n      dup2\n        /* \"#utility.yul\":11785:11916   */\n      tag_154\n      jump\t// in\n    tag_295:\n        /* \"#utility.yul\":11777:11916   */\n      swap1\n      pop\n        /* \"#utility.yul\":11504:11923   */\n      swap2\n      swap1\n      pop\n      jump\t// out\n        /* \"#utility.yul\":11929:12109   */\n    tag_155:\n        /* \"#utility.yul\":11977:12054   */\n      0x4e487b7100000000000000000000000000000000000000000000000000000000\n        /* \"#utility.yul\":11974:11975   */\n      0x00\n        /* \"#utility.yul\":11967:12055   */\n      mstore\n        /* \"#utility.yul\":12074:12078   */\n      0x22\n        /* \"#utility.yul\":12071:12072   */\n      0x04\n        /* \"#utility.yul\":12064:12079   */\n      mstore\n        /* \"#utility.yul\":12098:12102   */\n      0x24\n        /* \"#utility.yul\":12095:12096   */\n      0x00\n        /* \"#utility.yul\":12088:12103   */\n      revert\n        /* \"#utility.yul\":12115:12435   */\n    tag_90:\n        /* \"#utility.yul\":12159:12165   */\n      0x00\n        /* \"#utility.yul\":12196:12197   */\n      0x02\n        /* \"#utility.yul\":12190:12194   */\n      dup3\n        /* \"#utility.yul\":12186:12198   */\n      div\n        /* \"#utility.yul\":12176:12198   */\n      swap1\n      pop\n        /* \"#utility.yul\":12243:12244   */\n      0x01\n        /* \"#utility.yul\":12237:12241   */\n      dup3\n        /* \"#utility.yul\":12233:12245   */\n      and\n        /* \"#utility.yul\":12264:12282   */\n      dup1\n        /* \"#utility.yul\":12254:12335   */\n      tag_298\n      jumpi\n        /* \"#utility.yul\":12320:12324   */\n      0x7f\n        /* \"#utility.yul\":12312:12318   */\n      dup3\n        /* \"#utility.yul\":12308:12325   */\n      and\n        /* \"#utility.yul\":12298:12325   */\n      swap2\n      pop\n        /* \"#utility.yul\":12254:12335   */\n    tag_298:\n        /* \"#utility.yul\":12382:12384   */\n      0x20\n        /* \"#utility.yul\":12374:12380   */\n      dup3\n        /* \"#utility.yul\":12371:12385   */\n      lt\n        /* \"#utility.yul\":12351:12369   */\n      dup2\n        /* \"#utility.yul\":12348:12386   */\n      sub\n        /* \"#utility.yul\":12345:12429   */\n      tag_299\n      jumpi\n        /* \"#utility.yul\":12401:12419   */\n      tag_300\n      tag_155\n      jump\t// in\n    tag_300:\n        /* \"#utility.yul\":12345:12429   */\n    tag_299:\n        /* \"#utility.yul\":12166:12435   */\n      pop\n        /* \"#utility.yul\":12115:12435   */\n      swap2\n      swap1\n      pop\n      jump\t// out\n        /* \"#utility.yul\":12441:12582   */\n    tag_156:\n        /* \"#utility.yul\":12490:12494   */\n      0x00\n        /* \"#utility.yul\":12513:12516   */\n      dup2\n        /* \"#utility.yul\":12505:12516   */\n      swap1\n      pop\n        /* \"#utility.yul\":12536:12539   */\n      dup2\n        /* \"#utility.yul\":12533:12534   */\n      0x00\n        /* \"#utility.yul\":12526:12540   */\n      mstore\n        /* \"#utility.yul\":12570:12574   */\n      0x20\n        /* \"#utility.yul\":12567:12568   */\n      0x00\n        /* \"#utility.yul\":12557:12575   */\n      keccak256\n        /* \"#utility.yul\":12549:12575   */\n      swap1\n      pop\n        /* \"#utility.yul\":12441:12582   */\n      swap2\n      swap1\n      pop\n      jump\t// out\n        /* \"#utility.yul\":12588:12681   */\n    tag_157:\n        /* \"#utility.yul\":12625:12631   */\n      0x00\n        /* \"#utility.yul\":12672:12674   */\n      0x20\n        /* \"#utility.yul\":12667:12669   */\n      0x1f\n        /* \"#utility.yul\":12660:12665   */\n      dup4\n        /* \"#utility.yul\":12656:12670   */\n      add\n        /* \"#utility.yul\":12652:12675   */\n      div\n        /* \"#utility.yul\":12642:12675   */\n      swap1\n      pop\n        /* \"#utility.yul\":12588:12681   */\n      swap2\n      swap1\n      pop\n      jump\t// out\n        /* \"#utility.yul\":12687:12794   */\n    tag_158:\n        /* \"#utility.yul\":12731:12739   */\n      0x00\n        /* \"#utility.yul\":12781:12786   */\n      dup3\n        /* \"#utility.yul\":12775:12779   */\n      dup3\n        /* \"#utility.yul\":12771:12787   */\n      shl\n        /* \"#utility.yul\":12750:12787   */\n      swap1\n      pop\n        /* \"#utility.yul\":12687:12794   */\n      swap3\n      swap2\n      pop\n      pop\n      jump\t// out\n        /* \"#utility.yul\":12800:13193   */\n    tag_159:\n        /* \"#utility.yul\":12869:12875   */\n      0x00\n        /* \"#utility.yul\":12919:12920   */\n      0x08\n        /* \"#utility.yul\":12907:12917   */\n      dup4\n        /* \"#utility.yul\":12903:12921   */\n      mul\n        /* \"#utility.yul\":12942:13039   */\n      tag_305\n        /* \"#utility.yul\":12972:13038   */\n      0xffffffffffffffffffffffffffffffffffffffffffffffffffffffffffffffff\n        /* \"#utility.yul\":12961:12970   */\n      dup3\n        /* \"#utility.yul\":12942:13039   */\n      tag_158\n      jump\t// in\n    tag_305:\n        /* \"#utility.yul\":13060:13099   */\n      tag_306\n        /* \"#utility.yul\":13090:13098   */\n      dup7\n        /* \"#utility.yul\":13079:13088   */\n      dup4\n        /* \"#utility.yul\":13060:13099   */\n      tag_158\n      jump\t// in\n    tag_306:\n        /* \"#utility.yul\":13048:13099   */\n      swap6\n      pop\n        /* \"#utility.yul\":13132:13136   */\n      dup1\n        /* \"#utility.yul\":13128:13137   */\n      not\n        /* \"#utility.yul\":13121:13126   */\n      dup5\n        /* \"#utility.yul\":13117:13138   */\n      and\n        /* \"#utility.yul\":13108:13138   */\n      swap4\n      pop\n        /* \"#utility.yul\":13181:13185   */\n      dup1\n        /* \"#utility.yul\":13171:13179   */\n      dup7\n        /* \"#utility.yul\":13167:13186   */\n      and\n        /* \"#utility.yul\":13160:13165   */\n      dup5\n        /* \"#utility.yul\":13157:13187   */\n      or\n        /* \"#utility.yul\":13147:13187   */\n      swap3\n      pop\n        /* \"#utility.yul\":12876:13193   */\n      pop\n      pop\n        /* \"#utility.yul\":12800:13193   */\n      swap4\n      swap3\n      pop\n      pop\n      pop\n      jump\t// out\n        /* \"#utility.yul\":13199:13259   */\n    tag_160:\n        /* \"#utility.yul\":13227:13230   */\n      0x00\n        /* \"#utility.yul\":13248:13253   */\n      dup2\n        /* \"#utility.yul\":13241:13253   */\n      swap1\n      pop\n        /* \"#utility.yul\":13199:13259   */\n      swap2\n      swap1\n      pop\n      jump\t// out\n        /* \"#utility.yul\":13265:13407   */\n    tag_161:\n        /* \"#utility.yul\":13315:13324   */\n      0x00\n        /* \"#utility.yul\":13348:13401   */\n      tag_309\n        /* \"#utility.yul\":13366:13400   */\n      tag_310\n        /* \"#utility.yul\":13375:13399   */\n      tag_311\n        /* \"#utility.yul\":13393:13398   */\n      dup5\n        /* \"#utility.yul\":13375:13399   */\n      tag_122\n      jump\t// in\n    tag_311:\n        /* \"#utility.yul\":13366:13400   */\n      tag_160\n      jump\t// in\n    tag_310:\n        /* \"#utility.yul\":13348:13401   */\n      tag_122\n      jump\t// in\n    tag_309:\n        /* \"#utility.yul\":13335:13401   */\n      swap1\n      pop\n        /* \"#utility.yul\":13265:13407   */\n      swap2\n      swap1\n      pop\n      jump\t// out\n        /* \"#utility.yul\":13413:13488   */\n    tag_162:\n        /* \"#utility.yul\":13456:13459   */\n      0x00\n        /* \"#utility.yul\":13477:13482   */\n      dup2\n        /* \"#utility.yul\":13470:13482   */\n      swap1\n      pop\n        /* \"#utility.yul\":13413:13488   */\n      swap2\n      swap1\n      pop\n      jump\t// out\n        /* \"#utility.yul\":13494:13763   */\n    tag_163:\n        /* \"#utility.yul\":13604:13643   */\n      tag_314\n        /* \"#utility.yul\":13635:13642   */\n      dup4\n        /* \"#utility.yul\":13604:13643   */\n      tag_161\n      jump\t// in\n    tag_314:\n        /* \"#utility.yul\":13665:13756   */\n      tag_315\n        /* \"#utility.yul\":13714:13755   */\n      tag_316\n        /* \"#utility.yul\":13738:13754   */\n      dup3\n        /* \"#utility.yul\":13714:13755   */\n      tag_162\n      jump\t// in\n    tag_316:\n        /* \"#utility.yul\":13706:13712   */\n      dup5\n        /* \"#utility.yul\":13699:13703   */\n      dup5\n        /* \"#utility.yul\":13693:13704   */\n      sload\n        /* \"#utility.yul\":13665:13756   */\n      tag_159\n      jump\t// in\n    tag_315:\n        /* \"#utility.yul\":13659:13663   */\n      dup3\n        /* \"#utility.yul\":13652:13757   */\n      sstore\n        /* \"#utility.yul\":13570:13763   */\n      pop\n        /* \"#utility.yul\":13494:13763   */\n      pop\n      pop\n      pop\n      jump\t// out\n        /* \"#utility.yul\":13769:13842   */\n    tag_164:\n        /* \"#utility.yul\":13814:13817   */\n      0x00\n        /* \"#utility.yul\":13769:13842   */\n      swap1\n      jump\t// out\n        /* \"#utility.yul\":13848:14037   */\n    tag_165:\n        /* \"#utility.yul\":13925:13957   */\n      tag_319\n      tag_164\n      jump\t// in\n    tag_319:\n        /* \"#utility.yul\":13966:14031   */\n      tag_320\n        /* \"#utility.yul\":14024:14030   */\n      dup2\n        /* \"#utility.yul\":14016:14022   */\n      dup5\n        /* \"#utility.yul\":14010:14014   */\n      dup5\n        /* \"#utility.yul\":13966:14031   */\n      tag_163\n      jump\t// in\n    tag_320:\n        /* \"#utility.yul\":13901:14037   */\n      pop\n        /* \"#utility.yul\":13848:14037   */\n      pop\n      pop\n      jump\t// out\n        /* \"#utility.yul\":14043:14229   */\n    tag_166:\n        /* \"#utility.yul\":14103:14223   */\n    tag_322:\n        /* \"#utility.yul\":14120:14123   */\n      dup2\n        /* \"#utility.yul\":14113:14118   */\n      dup2\n        /* \"#utility.yul\":14110:14124   */\n      lt\n        /* \"#utility.yul\":14103:14223   */\n      iszero\n      tag_324\n      jumpi\n        /* \"#utility.yul\":14174:14213   */\n      tag_325\n        /* \"#utility.yul\":14211:14212   */\n      0x00\n        /* \"#utility.yul\":14204:14209   */\n      dup3\n        /* \"#utility.yul\":14174:14213   */\n      tag_165\n      jump\t// in\n    tag_325:\n        /* \"#utility.yul\":14147:14148   */\n      0x01\n        /* \"#utility.yul\":14140:14145   */\n      dup2\n        /* \"#utility.yul\":14136:14149   */\n      add\n        /* \"#utility.yul\":14127:14149   */\n      swap1\n      pop\n        /* \"#utility.yul\":14103:14223   */\n      jump(tag_322)\n    tag_324:\n        /* \"#utility.yul\":14043:14229   */\n      pop\n      pop\n      jump\t// out\n        /* \"#utility.yul\":14235:14778   */\n    tag_167:\n        /* \"#utility.yul\":14336:14338   */\n      0x1f\n        /* \"#utility.yul\":14331:14334   */\n      dup3\n        /* \"#utility.yul\":14328:14339   */\n      gt\n        /* \"#utility.yul\":14325:14771   */\n      iszero\n      tag_327\n      jumpi\n        /* \"#utility.yul\":14370:14408   */\n      tag_328\n        /* \"#utility.yul\":14402:14407   */\n      dup2\n        /* \"#utility.yul\":14370:14408   */\n      tag_156\n      jump\t// in\n    tag_328:\n        /* \"#utility.yul\":14454:14483   */\n      tag_329\n        /* \"#utility.yul\":14472:14482   */\n      dup5\n        /* \"#utility.yul\":14454:14483   */\n      tag_157\n      jump\t// in\n    tag_329:\n        /* \"#utility.yul\":14444:14452   */\n      dup2\n        /* \"#utility.yul\":14440:14484   */\n      add\n        /* \"#utility.yul\":14637:14639   */\n      0x20\n        /* \"#utility.yul\":14625:14635   */\n      dup6\n        /* \"#utility.yul\":14622:14640   */\n      lt\n        /* \"#utility.yul\":14619:14668   */\n      iszero\n      tag_330\n      jumpi\n        /* \"#utility.yul\":14658:14666   */\n      dup2\n        /* \"#utility.yul\":14643:14666   */\n      swap1\n      pop\n        /* \"#utility.yul\":14619:14668   */\n    tag_330:\n        /* \"#utility.yul\":14681:14761   */\n      tag_331\n        /* \"#utility.yul\":14737:14759   */\n      tag_332\n        /* \"#utility.yul\":14755:14758   */\n      dup6\n        /* \"#utility.yul\":14737:14759   */\n      tag_157\n      jump\t// in\n    tag_332:\n        /* \"#utility.yul\":14727:14735   */\n      dup4\n        /* \"#utility.yul\":14723:14760   */\n      add\n        /* \"#utility.yul\":14710:14721   */\n      dup3\n        /* \"#utility.yul\":14681:14761   */\n      tag_166\n      jump\t// in\n    tag_331:\n        /* \"#utility.yul\":14340:14771   */\n      pop\n      pop\n        /* \"#utility.yul\":14325:14771   */\n    tag_327:\n        /* \"#utility.yul\":14235:14778   */\n      pop\n      pop\n      pop\n      jump\t// out\n        /* \"#utility.yul\":14784:14901   */\n    tag_168:\n        /* \"#utility.yul\":14838:14846   */\n      0x00\n        /* \"#utility.yul\":14888:14893   */\n      dup3\n        /* \"#utility.yul\":14882:14886   */\n      dup3\n        /* \"#utility.yul\":14878:14894   */\n      shr\n        /* \"#utility.yul\":14857:14894   */\n      swap1\n      pop\n        /* \"#utility.yul\":14784:14901   */\n      swap3\n      swap2\n      pop\n      pop\n      jump\t// out\n        /* \"#utility.yul\":14907:15076   */\n    tag_169:\n        /* \"#utility.yul\":14951:14957   */\n      0x00\n        /* \"#utility.yul\":14984:15035   */\n      tag_335\n        /* \"#utility.yul\":15032:15033   */\n      0x00\n        /* \"#utility.yul\":15028:15034   */\n      not\n        /* \"#utility.yul\":15020:15025   */\n      dup5\n        /* \"#utility.yul\":15017:15018   */\n      0x08\n        /* \"#utility.yul\":15013:15026   */\n      mul\n        /* \"#utility.yul\":14984:15035   */\n      tag_168\n      jump\t// in\n    tag_335:\n        /* \"#utility.yul\":14980:15036   */\n      not\n        /* \"#utility.yul\":15065:15069   */\n      dup1\n        /* \"#utility.yul\":15059:15063   */\n      dup4\n        /* \"#utility.yul\":15055:15070   */\n      and\n        /* \"#utility.yul\":15045:15070   */\n      swap2\n      pop\n        /* \"#utility.yul\":14958:15076   */\n      pop\n        /* \"#utility.yul\":14907:15076   */\n      swap3\n      swap2\n      pop\n      pop\n      jump\t// out\n        /* \"#utility.yul\":15081:15376   */\n    tag_170:\n        /* \"#utility.yul\":15157:15161   */\n      0x00\n        /* \"#utility.yul\":15303:15332   */\n      tag_337\n        /* \"#utility.yul\":15328:15331   */\n      dup4\n        /* \"#utility.yul\":15322:15326   */\n      dup4\n        /* \"#utility.yul\":15303:15332   */\n      tag_169\n      jump\t// in\n    tag_337:\n        /* \"#utility.yul\":15295:15332   */\n      swap2\n      pop\n        /* \"#utility.yul\":15365:15368   */\n      dup3\n        /* \"#utility.yul\":15362:15363   */\n      0x02\n        /* \"#utility.yul\":15358:15369   */\n      mul\n        /* \"#utility.yul\":15352:15356   */\n      dup3\n        /* \"#utility.yul\":15349:15370   */\n      or\n        /* \"#utility.yul\":15341:15370   */\n      swap1\n      pop\n        /* \"#utility.yul\":15081:15376   */\n      swap3\n      swap2\n      pop\n      pop\n      jump\t// out\n        /* \"#utility.yul\":15381:16776   */\n    tag_101:\n        /* \"#utility.yul\":15498:15535   */\n      tag_339\n        /* \"#utility.yul\":15531:15534   */\n      dup3\n        /* \"#utility.yul\":15498:15535   */\n      tag_133\n      jump\t// in\n    tag_339:\n        /* \"#utility.yul\":15600:15618   */\n      0xffffffffffffffff\n        /* \"#utility.yul\":15592:15598   */\n      dup2\n        /* \"#utility.yul\":15589:15619   */\n      gt\n        /* \"#utility.yul\":15586:15642   */\n      iszero\n      tag_340\n      jumpi\n        /* \"#utility.yul\":15622:15640   */\n      tag_341\n      tag_140\n      jump\t// in\n    tag_341:\n        /* \"#utility.yul\":15586:15642   */\n    tag_340:\n        /* \"#utility.yul\":15666:15704   */\n      tag_342\n        /* \"#utility.yul\":15698:15702   */\n      dup3\n        /* \"#utility.yul\":15692:15703   */\n      sload\n        /* \"#utility.yul\":15666:15704   */\n      tag_90\n      jump\t// in\n    tag_342:\n        /* \"#utility.yul\":15751:15818   */\n      tag_343\n        /* \"#utility.yul\":15811:15817   */\n      dup3\n        /* \"#utility.yul\":15803:15809   */\n      dup3\n        /* \"#utility.yul\":15797:15801   */\n      dup6\n        /* \"#utility.yul\":15751:15818   */\n      tag_167\n      jump\t// in\n    tag_343:\n        /* \"#utility.yul\":15845:15846   */\n      0x00\n        /* \"#utility.yul\":15869:15873   */\n      0x20\n        /* \"#utility.yul\":15856:15873   */\n      swap1\n      pop\n        /* \"#utility.yul\":15901:15903   */\n      0x1f\n        /* \"#utility.yul\":15893:15899   */\n      dup4\n        /* \"#utility.yul\":15890:15904   */\n      gt\n        /* \"#utility.yul\":15918:15919   */\n      0x01\n        /* \"#utility.yul\":15913:16531   */\n      dup2\n      eq\n      tag_345\n      jumpi\n        /* \"#utility.yul\":16575:16576   */\n      0x00\n        /* \"#utility.yul\":16592:16598   */\n      dup5\n        /* \"#utility.yul\":16589:16666   */\n      iszero\n      tag_346\n      jumpi\n        /* \"#utility.yul\":16641:16650   */\n      dup3\n        /* \"#utility.yul\":16636:16639   */\n      dup8\n        /* \"#utility.yul\":16632:16651   */\n      add\n        /* \"#utility.yul\":16626:16652   */\n      mload\n        /* \"#utility.yul\":16617:16652   */\n      swap1\n      pop\n        /* \"#utility.yul\":16589:16666   */\n    tag_346:\n        /* \"#utility.yul\":16692:16759   */\n      tag_347\n        /* \"#utility.yul\":16752:16758   */\n      dup6\n        /* \"#utility.yul\":16745:16750   */\n      dup3\n        /* \"#utility.yul\":16692:16759   */\n      tag_170\n      jump\t// in\n    tag_347:\n        /* \"#utility.yul\":16686:16690   */\n      dup7\n        /* \"#utility.yul\":16679:16760   */\n      sstore\n        /* \"#utility.yul\":16548:16770   */\n      pop\n        /* \"#utility.yul\":15883:16770   */\n      jump(tag_344)\n        /* \"#utility.yul\":15913:16531   */\n    tag_345:\n        /* \"#utility.yul\":15965:15969   */\n      0x1f\n        /* \"#utility.yul\":15961:15970   */\n      not\n        /* \"#utility.yul\":15953:15959   */\n      dup5\n        /* \"#utility.yul\":15949:15971   */\n      and\n        /* \"#utility.yul\":15999:16036   */\n      tag_348\n        /* \"#utility.yul\":16031:16035   */\n      dup7\n        /* \"#utility.yul\":15999:16036   */\n      tag_156\n      jump\t// in\n    tag_348:\n        /* \"#utility.yul\":16058:16059   */\n      0x00\n        /* \"#utility.yul\":16072:16280   */\n    tag_349:\n        /* \"#utility.yul\":16086:16093   */\n      dup3\n        /* \"#utility.yul\":16083:16084   */\n      dup2\n        /* \"#utility.yul\":16080:16094   */\n      lt\n        /* \"#utility.yul\":16072:16280   */\n      iszero\n      tag_351\n      jumpi\n        /* \"#utility.yul\":16165:16174   */\n      dup5\n        /* \"#utility.yul\":16160:16163   */\n      dup10\n        /* \"#utility.yul\":16156:16175   */\n      add\n        /* \"#utility.yul\":16150:16176   */\n      mload\n        /* \"#utility.yul\":16142:16148   */\n      dup3\n        /* \"#utility.yul\":16135:16177   */\n      sstore\n        /* \"#utility.yul\":16216:16217   */\n      0x01\n        /* \"#utility.yul\":16208:16214   */\n      dup3\n        /* \"#utility.yul\":16204:16218   */\n      add\n        /* \"#utility.yul\":16194:16218   */\n      swap2\n      pop\n        /* \"#utility.yul\":16263:16265   */\n      0x20\n        /* \"#utility.yul\":16252:16261   */\n      dup6\n        /* \"#utility.yul\":16248:16266   */\n      add\n        /* \"#utility.yul\":16235:16266   */\n      swap5\n      pop\n        /* \"#utility.yul\":16109:16113   */\n      0x20\n        /* \"#utility.yul\":16106:16107   */\n      dup2\n        /* \"#utility.yul\":16102:16114   */\n      add\n        /* \"#utility.yul\":16097:16114   */\n      swap1\n      pop\n        /* \"#utility.yul\":16072:16280   */\n      jump(tag_349)\n    tag_351:\n        /* \"#utility.yul\":16308:16314   */\n      dup7\n        /* \"#utility.yul\":16299:16306   */\n      dup4\n        /* \"#utility.yul\":16296:16315   */\n      lt\n        /* \"#utility.yul\":16293:16472   */\n      iszero\n      tag_352\n      jumpi\n        /* \"#utility.yul\":16366:16375   */\n      dup5\n        /* \"#utility.yul\":16361:16364   */\n      dup10\n        /* \"#utility.yul\":16357:16376   */\n      add\n        /* \"#utility.yul\":16351:16377   */\n      mload\n        /* \"#utility.yul\":16409:16457   */\n      tag_353\n        /* \"#utility.yul\":16451:16455   */\n      0x1f\n        /* \"#utility.yul\":16443:16449   */\n      dup10\n        /* \"#utility.yul\":16439:16456   */\n      and\n        /* \"#utility.yul\":16428:16437   */\n      dup3\n        /* \"#utility.yul\":16409:16457   */\n      tag_169\n      jump\t// in\n    tag_353:\n        /* \"#utility.yul\":16401:16407   */\n      dup4\n        /* \"#utility.yul\":16394:16458   */\n      sstore\n        /* \"#utility.yul\":16316:16472   */\n      pop\n        /* \"#utility.yul\":16293:16472   */\n    tag_352:\n        /* \"#utility.yul\":16518:16519   */\n      0x01\n        /* \"#utility.yul\":16514:16515   */\n      0x02\n        /* \"#utility.yul\":16506:16512   */\n      dup9\n        /* \"#utility.yul\":16502:16516   */\n      mul\n        /* \"#utility.yul\":16498:16520   */\n      add\n        /* \"#utility.yul\":16492:16496   */\n      dup9\n        /* \"#utility.yul\":16485:16521   */\n      sstore\n        /* \"#utility.yul\":15920:16531   */\n      pop\n      pop\n      pop\n        /* \"#utility.yul\":15883:16770   */\n    tag_344:\n      pop\n        /* \"#utility.yul\":15473:16776   */\n      pop\n      pop\n      pop\n        /* \"#utility.yul\":15381:16776   */\n      pop\n      pop\n      jump\t// out\n        /* \"#utility.yul\":16782:17002   */\n    tag_171:\n        /* \"#utility.yul\":16922:16956   */\n      0x436f6e747269627574696f6e206973206c657373207468616e206d696e696d75\n        /* \"#utility.yul\":16918:16919   */\n      0x00\n        /* \"#utility.yul\":16910:16916   */\n      dup3\n        /* \"#utility.yul\":16906:16920   */\n      add\n        /* \"#utility.yul\":16899:16957   */\n      mstore\n        /* \"#utility.yul\":16991:16994   */\n      0x6d00000000000000000000000000000000000000000000000000000000000000\n        /* \"#utility.yul\":16986:16988   */\n      0x20\n        /* \"#utility.yul\":16978:16984   */\n      dup3\n        /* \"#utility.yul\":16974:16989   */\n      add\n        /* \"#utility.yul\":16967:16995   */\n      mstore\n        /* \"#utility.yul\":16782:17002   */\n      pop\n      jump\t// out\n        /* \"#utility.yul\":17008:17374   */\n    tag_172:\n        /* \"#utility.yul\":17150:17153   */\n      0x00\n        /* \"#utility.yul\":17171:17238   */\n      tag_356\n        /* \"#utility.yul\":17235:17237   */\n      0x21\n        /* \"#utility.yul\":17230:17233   */\n      dup4\n        /* \"#utility.yul\":17171:17238   */\n      tag_134\n      jump\t// in\n    tag_356:\n        /* \"#utility.yul\":17164:17238   */\n      swap2\n      pop\n        /* \"#utility.yul\":17247:17340   */\n      tag_357\n        /* \"#utility.yul\":17336:17339   */\n      dup3\n        /* \"#utility.yul\":17247:17340   */\n      tag_171\n      jump\t// in\n    tag_357:\n        /* \"#utility.yul\":17365:17367   */\n      0x40\n        /* \"#utility.yul\":17360:17363   */\n      dup3\n        /* \"#utility.yul\":17356:17368   */\n      add\n        /* \"#utility.yul\":17349:17368   */\n      swap1\n      pop\n        /* \"#utility.yul\":17008:17374   */\n      swap2\n      swap1\n      pop\n      jump\t// out\n        /* \"#utility.yul\":17380:17799   */\n    tag_105:\n        /* \"#utility.yul\":17546:17550   */\n      0x00\n        /* \"#utility.yul\":17584:17586   */\n      0x20\n        /* \"#utility.yul\":17573:17582   */\n      dup3\n        /* \"#utility.yul\":17569:17587   */\n      add\n        /* \"#utility.yul\":17561:17587   */\n      swap1\n      pop\n        /* \"#utility.yul\":17633:17642   */\n      dup2\n        /* \"#utility.yul\":17627:17631   */\n      dup2\n        /* \"#utility.yul\":17623:17643   */\n      sub\n        /* \"#utility.yul\":17619:17620   */\n      0x00\n        /* \"#utility.yul\":17608:17617   */\n      dup4\n        /* \"#utility.yul\":17604:17621   */\n      add\n        /* \"#utility.yul\":17597:17644   */\n      mstore\n        /* \"#utility.yul\":17661:17792   */\n      tag_359\n        /* \"#utility.yul\":17787:17791   */\n      dup2\n        /* \"#utility.yul\":17661:17792   */\n      tag_172\n      jump\t// in\n    tag_359:\n        /* \"#utility.yul\":17653:17792   */\n      swap1\n      pop\n        /* \"#utility.yul\":17380:17799   */\n      swap2\n      swap1\n      pop\n      jump\t// out\n        /* \"#utility.yul\":17805:18038   */\n    tag_107:\n        /* \"#utility.yul\":17844:17847   */\n      0x00\n        /* \"#utility.yul\":17867:17891   */\n      tag_361\n        /* \"#utility.yul\":17885:17890   */\n      dup3\n        /* \"#utility.yul\":17867:17891   */\n      tag_122\n      jump\t// in\n    tag_361:\n        /* \"#utility.yul\":17858:17891   */\n      swap2\n      pop\n        /* \"#utility.yul\":17913:17979   */\n      0xffffffffffffffffffffffffffffffffffffffffffffffffffffffffffffffff\n        /* \"#utility.yul\":17906:17911   */\n      dup3\n        /* \"#utility.yul\":17903:17980   */\n      sub\n        /* \"#utility.yul\":17900:18003   */\n      tag_362\n      jumpi\n        /* \"#utility.yul\":17983:18001   */\n      tag_363\n      tag_150\n      jump\t// in\n    tag_363:\n        /* \"#utility.yul\":17900:18003   */\n    tag_362:\n        /* \"#utility.yul\":18030:18031   */\n      0x01\n        /* \"#utility.yul\":18023:18028   */\n      dup3\n        /* \"#utility.yul\":18019:18032   */\n      add\n        /* \"#utility.yul\":18012:18032   */\n      swap1\n      pop\n        /* \"#utility.yul\":17805:18038   */\n      swap2\n      swap1\n      pop\n      jump\t// out\n        /* \"#utility.yul\":18044:18219   */\n    tag_173:\n        /* \"#utility.yul\":18184:18211   */\n      0x43616c6c6572206973206e6f7420616e20617070726f76657200000000000000\n        /* \"#utility.yul\":18180:18181   */\n      0x00\n        /* \"#utility.yul\":18172:18178   */\n      dup3\n        /* \"#utility.yul\":18168:18182   */\n      add\n        /* \"#utility.yul\":18161:18212   */\n      mstore\n        /* \"#utility.yul\":18044:18219   */\n      pop\n      jump\t// out\n        /* \"#utility.yul\":18225:18591   */\n    tag_174:\n        /* \"#utility.yul\":18367:18370   */\n      0x00\n        /* \"#utility.yul\":18388:18455   */\n      tag_366\n        /* \"#utility.yul\":18452:18454   */\n      0x19\n        /* \"#utility.yul\":18447:18450   */\n      dup4\n        /* \"#utility.yul\":18388:18455   */\n      tag_134\n      jump\t// in\n    tag_366:\n        /* \"#utility.yul\":18381:18455   */\n      swap2\n      pop\n        /* \"#utility.yul\":18464:18557   */\n      tag_367\n        /* \"#utility.yul\":18553:18556   */\n      dup3\n        /* \"#utility.yul\":18464:18557   */\n      tag_173\n      jump\t// in\n    tag_367:\n        /* \"#utility.yul\":18582:18584   */\n      0x20\n        /* \"#utility.yul\":18577:18580   */\n      dup3\n        /* \"#utility.yul\":18573:18585   */\n      add\n        /* \"#utility.yul\":18566:18585   */\n      swap1\n      pop\n        /* \"#utility.yul\":18225:18591   */\n      swap2\n      swap1\n      pop\n      jump\t// out\n        /* \"#utility.yul\":18597:19016   */\n    tag_114:\n        /* \"#utility.yul\":18763:18767   */\n      0x00\n        /* \"#utility.yul\":18801:18803   */\n      0x20\n        /* \"#utility.yul\":18790:18799   */\n      dup3\n        /* \"#utility.yul\":18786:18804   */\n      add\n        /* \"#utility.yul\":18778:18804   */\n      swap1\n      pop\n        /* \"#utility.yul\":18850:18859   */\n      dup2\n        /* \"#utility.yul\":18844:18848   */\n      dup2\n        /* \"#utility.yul\":18840:18860   */\n      sub\n        /* \"#utility.yul\":18836:18837   */\n      0x00\n        /* \"#utility.yul\":18825:18834   */\n      dup4\n        /* \"#utility.yul\":18821:18838   */\n      add\n        /* \"#utility.yul\":18814:18861   */\n      mstore\n        /* \"#utility.yul\":18878:19009   */\n      tag_369\n        /* \"#utility.yul\":19004:19008   */\n      dup2\n        /* \"#utility.yul\":18878:19009   */\n      tag_174\n      jump\t// in\n    tag_369:\n        /* \"#utility.yul\":18870:19009   */\n      swap1\n      pop\n        /* \"#utility.yul\":18597:19016   */\n      swap2\n      swap1\n      pop\n      jump\t// out\n        /* \"#utility.yul\":19022:19199   */\n    tag_175:\n        /* \"#utility.yul\":19162:19191   */\n      0x43616c6c65722068617320616c726561647920617070726f7665640000000000\n        /* \"#utility.yul\":19158:19159   */\n      0x00\n        /* \"#utility.yul\":19150:19156   */\n      dup3\n        /* \"#utility.yul\":19146:19160   */\n      add\n        /* \"#utility.yul\":19139:19192   */\n      mstore\n        /* \"#utility.yul\":19022:19199   */\n      pop\n      jump\t// out\n        /* \"#utility.yul\":19205:19571   */\n    tag_176:\n        /* \"#utility.yul\":19347:19350   */\n      0x00\n        /* \"#utility.yul\":19368:19435   */\n      tag_372\n        /* \"#utility.yul\":19432:19434   */\n      0x1b\n        /* \"#utility.yul\":19427:19430   */\n      dup4\n        /* \"#utility.yul\":19368:19435   */\n      tag_134\n      jump\t// in\n    tag_372:\n        /* \"#utility.yul\":19361:19435   */\n      swap2\n      pop\n        /* \"#utility.yul\":19444:19537   */\n      tag_373\n        /* \"#utility.yul\":19533:19536   */\n      dup3\n        /* \"#utility.yul\":19444:19537   */\n      tag_175\n      jump\t// in\n    tag_373:\n        /* \"#utility.yul\":19562:19564   */\n      0x20\n        /* \"#utility.yul\":19557:19560   */\n      dup3\n        /* \"#utility.yul\":19553:19565   */\n      add\n        /* \"#utility.yul\":19546:19565   */\n      swap1\n      pop\n        /* \"#utility.yul\":19205:19571   */\n      swap2\n      swap1\n      pop\n      jump\t// out\n        /* \"#utility.yul\":19577:19996   */\n    tag_117:\n        /* \"#utility.yul\":19743:19747   */\n      0x00\n        /* \"#utility.yul\":19781:19783   */\n      0x20\n        /* \"#utility.yul\":19770:19779   */\n      dup3\n        /* \"#utility.yul\":19766:19784   */\n      add\n        /* \"#utility.yul\":19758:19784   */\n      swap1\n      pop\n        /* \"#utility.yul\":19830:19839   */\n      dup2\n        /* \"#utility.yul\":19824:19828   */\n      dup2\n        /* \"#utility.yul\":19820:19840   */\n      sub\n        /* \"#utility.yul\":19816:19817   */\n      0x00\n        /* \"#utility.yul\":19805:19814   */\n      dup4\n        /* \"#utility.yul\":19801:19818   */\n      add\n        /* \"#utility.yul\":19794:19841   */\n      mstore\n        /* \"#utility.yul\":19858:19989   */\n      tag_375\n        /* \"#utility.yul\":19984:19988   */\n      dup2\n        /* \"#utility.yul\":19858:19989   */\n      tag_176\n      jump\t// in\n    tag_375:\n        /* \"#utility.yul\":19850:19989   */\n      swap1\n      pop\n        /* \"#utility.yul\":19577:19996   */\n      swap2\n      swap1\n      pop\n      jump\t// out\n\n    auxdata: 0xa26469706673582212205bf83b652fcaed85392d5124ece91778b09291f3857ed8961eb98fdaa381025264736f6c634300081a0033\n}\n","bytecode":{"linkReferences":{},"object":"608060405234801561000f575f80fd5b5060405161158e38038061158e83398181016040528101906100319190610110565b8060015f6101000a81548173ffffffffffffffffffffffffffffffffffffffff021916908373ffffffffffffffffffffffffffffffffffffffff16021790555081600281905550505061014e565b5f80fd5b5f819050919050565b61009581610083565b811461009f575f80fd5b50565b5f815190506100b08161008c565b92915050565b5f73ffffffffffffffffffffffffffffffffffffffff82169050919050565b5f6100df826100b6565b9050919050565b6100ef816100d5565b81146100f9575f80fd5b50565b5f8151905061010a816100e6565b92915050565b5f80604083850312156101265761012561007f565b5b5f610133858286016100a2565b9250506020610144858286016100fc565b9150509250929050565b6114338061015b5f395ff3fe60806040526004361061009b575f3560e01c806381d12c581161006357806381d12c581461018557806382fde093146101c55780638a9cfd55146101ef578063937e09b114610217578063d7bb99ba14610241578063d7d1bbdb1461024b5761009b565b8063034410061461009f5780630a144391146100c75780633fad1834146101035780634051ddac1461012d578063481c6a751461015b575b5f80fd5b3480156100aa575f80fd5b506100c560048036038101906100c091906109bc565b610273565b005b3480156100d2575f80fd5b506100ed60048036038101906100e89190610a41565b610456565b6040516100fa9190610a86565b60405180910390f35b34801561010e575f80fd5b50610117610473565b6040516101249190610aae565b60405180910390f35b348015610138575f80fd5b5061014161047e565b604051610152959493929190610ad6565b60405180910390f35b348015610166575f80fd5b5061016f6104c2565b60405161017c9190610b27565b60405180910390f35b348015610190575f80fd5b506101ab60048036038101906101a691906109bc565b6104e7565b6040516101bc959493929190610bb0565b60405180910390f35b3480156101d0575f80fd5b506101d96105d9565b6040516101e69190610aae565b60405180910390f35b3480156101fa575f80fd5b5061021560048036038101906102109190610d34565b6105df565b005b348015610222575f80fd5b5061022b610715565b6040516102389190610aae565b60405180910390f35b61024961071b565b005b348015610256575f80fd5b50610271600480360381019061026c91906109bc565b6107cd565b005b60015f9054906101000a900473ffffffffffffffffffffffffffffffffffffffff1673ffffffffffffffffffffffffffffffffffffffff163373ffffffffffffffffffffffffffffffffffffffff1614610302576040517f08c379a00000000000000000000000000000000000000000000000000000000081526004016102f990610dea565b60405180910390fd5b5f80828154811061031657610315610e08565b5b905f5260205f209060050201905060026004546103339190610e8f565b816003015411610378576040517f08c379a000000000000000000000000000000000000000000000000000000000815260040161036f90610f09565b60405180910390fd5b8060020160149054906101000a900460ff16156103ca576040517f08c379a00000000000000000000000000000000000000000000000000000000081526004016103c190610f71565b60405180910390fd5b806002015f9054906101000a900473ffffffffffffffffffffffffffffffffffffffff1673ffffffffffffffffffffffffffffffffffffffff166108fc826001015490811502906040515f60405180830381858888f19350505050158015610434573d5f803e3d5ffd5b5060018160020160146101000a81548160ff0219169083151502179055505050565b6003602052805f5260405f205f915054906101000a900460ff1681565b5f8080549050905090565b5f805f805f600254475f8054905060045460015f9054906101000a900473ffffffffffffffffffffffffffffffffffffffff16945094509450945094509091929394565b60015f9054906101000a900473ffffffffffffffffffffffffffffffffffffffff1681565b5f81815481106104f5575f80fd5b905f5260205f2090600502015f91509050805f01805461051490610fbc565b80601f016020809104026020016040519081016040528092919081815260200182805461054090610fbc565b801561058b5780601f106105625761010080835404028352916020019161058b565b820191905f5260205f20905b81548152906001019060200180831161056e57829003601f168201915b505050505090806001015490806002015f9054906101000a900473ffffffffffffffffffffffffffffffffffffffff16908060020160149054906101000a900460ff16908060030154905085565b60045481565b60015f9054906101000a900473ffffffffffffffffffffffffffffffffffffffff1673ffffffffffffffffffffffffffffffffffffffff163373ffffffffffffffffffffffffffffffffffffffff161461066e576040517f08c379a000000000000000000000000000000000000000000000000000000000815260040161066590610dea565b60405180910390fd5b5f8060018160018154018082558091505003905f5260205f209060050201905083815f01908161069e9190611189565b5082816001018190555081816002015f6101000a81548173ffffffffffffffffffffffffffffffffffffffff021916908373ffffffffffffffffffffffffffffffffffffffff1602179055505f8160020160146101000a81548160ff0219169083151502179055505f816003018190555050505050565b60025481565b600254341161075f576040517f08c379a0000000000000000000000000000000000000000000000000000000008152600401610756906112c8565b60405180910390fd5b600160035f3373ffffffffffffffffffffffffffffffffffffffff1673ffffffffffffffffffffffffffffffffffffffff1681526020019081526020015f205f6101000a81548160ff02191690831515021790555060045f8154809291906107c6906112e6565b9190505550565b5f8082815481106107e1576107e0610e08565b5b905f5260205f209060050201905060035f3373ffffffffffffffffffffffffffffffffffffffff1673ffffffffffffffffffffffffffffffffffffffff1681526020019081526020015f205f9054906101000a900460ff16610878576040517f08c379a000000000000000000000000000000000000000000000000000000000815260040161086f90611377565b60405180910390fd5b806004015f3373ffffffffffffffffffffffffffffffffffffffff1673ffffffffffffffffffffffffffffffffffffffff1681526020019081526020015f205f9054906101000a900460ff1615610904576040517f08c379a00000000000000000000000000000000000000000000000000000000081526004016108fb906113df565b60405180910390fd5b6001816004015f3373ffffffffffffffffffffffffffffffffffffffff1673ffffffffffffffffffffffffffffffffffffffff1681526020019081526020015f205f6101000a81548160ff021916908315150217905550806003015f81548092919061096f906112e6565b91905055505050565b5f604051905090565b5f80fd5b5f80fd5b5f819050919050565b61099b81610989565b81146109a5575f80fd5b50565b5f813590506109b681610992565b92915050565b5f602082840312156109d1576109d0610981565b5b5f6109de848285016109a8565b91505092915050565b5f73ffffffffffffffffffffffffffffffffffffffff82169050919050565b5f610a10826109e7565b9050919050565b610a2081610a06565b8114610a2a575f80fd5b50565b5f81359050610a3b81610a17565b92915050565b5f60208284031215610a5657610a55610981565b5b5f610a6384828501610a2d565b91505092915050565b5f8115159050919050565b610a8081610a6c565b82525050565b5f602082019050610a995f830184610a77565b92915050565b610aa881610989565b82525050565b5f602082019050610ac15f830184610a9f565b92915050565b610ad081610a06565b82525050565b5f60a082019050610ae95f830188610a9f565b610af66020830187610a9f565b610b036040830186610a9f565b610b106060830185610a9f565b610b1d6080830184610ac7565b9695505050505050565b5f602082019050610b3a5f830184610ac7565b92915050565b5f81519050919050565b5f82825260208201905092915050565b8281835e5f83830152505050565b5f601f19601f8301169050919050565b5f610b8282610b40565b610b8c8185610b4a565b9350610b9c818560208601610b5a565b610ba581610b68565b840191505092915050565b5f60a0820190508181035f830152610bc88188610b78565b9050610bd76020830187610a9f565b610be46040830186610ac7565b610bf16060830185610a77565b610bfe6080830184610a9f565b9695505050505050565b5f80fd5b5f80fd5b7f4e487b71000000000000000000000000000000000000000000000000000000005f52604160045260245ffd5b610c4682610b68565b810181811067ffffffffffffffff82111715610c6557610c64610c10565b5b80604052505050565b5f610c77610978565b9050610c838282610c3d565b919050565b5f67ffffffffffffffff821115610ca257610ca1610c10565b5b610cab82610b68565b9050602081019050919050565b828183375f83830152505050565b5f610cd8610cd384610c88565b610c6e565b905082815260208101848484011115610cf457610cf3610c0c565b5b610cff848285610cb8565b509392505050565b5f82601f830112610d1b57610d1a610c08565b5b8135610d2b848260208601610cc6565b91505092915050565b5f805f60608486031215610d4b57610d4a610981565b5b5f84013567ffffffffffffffff811115610d6857610d67610985565b5b610d7486828701610d07565b9350506020610d85868287016109a8565b9250506040610d9686828701610a2d565b9150509250925092565b7f43616c6c6572206973206e6f7420746865206d616e61676572000000000000005f82015250565b5f610dd4601983610b4a565b9150610ddf82610da0565b602082019050919050565b5f6020820190508181035f830152610e0181610dc8565b9050919050565b7f4e487b71000000000000000000000000000000000000000000000000000000005f52603260045260245ffd5b7f4e487b71000000000000000000000000000000000000000000000000000000005f52601260045260245ffd5b7f4e487b71000000000000000000000000000000000000000000000000000000005f52601160045260245ffd5b5f610e9982610989565b9150610ea483610989565b925082610eb457610eb3610e35565b5b828204905092915050565b7f4e6f7420656e6f75676820617070726f76616c730000000000000000000000005f82015250565b5f610ef3601483610b4a565b9150610efe82610ebf565b602082019050919050565b5f6020820190508181035f830152610f2081610ee7565b9050919050565b7f5265717565737420616c726561647920636f6d706c65746564000000000000005f82015250565b5f610f5b601983610b4a565b9150610f6682610f27565b602082019050919050565b5f6020820190508181035f830152610f8881610f4f565b9050919050565b7f4e487b71000000000000000000000000000000000000000000000000000000005f52602260045260245ffd5b5f6002820490506001821680610fd357607f821691505b602082108103610fe657610fe5610f8f565b5b50919050565b5f819050815f5260205f209050919050565b5f6020601f8301049050919050565b5f82821b905092915050565b5f600883026110487fffffffffffffffffffffffffffffffffffffffffffffffffffffffffffffffff8261100d565b611052868361100d565b95508019841693508086168417925050509392505050565b5f819050919050565b5f61108d61108861108384610989565b61106a565b610989565b9050919050565b5f819050919050565b6110a683611073565b6110ba6110b282611094565b848454611019565b825550505050565b5f90565b6110ce6110c2565b6110d981848461109d565b505050565b5b818110156110fc576110f15f826110c6565b6001810190506110df565b5050565b601f8211156111415761111281610fec565b61111b84610ffe565b8101602085101561112a578190505b61113e61113685610ffe565b8301826110de565b50505b505050565b5f82821c905092915050565b5f6111615f1984600802611146565b1980831691505092915050565b5f6111798383611152565b9150826002028217905092915050565b61119282610b40565b67ffffffffffffffff8111156111ab576111aa610c10565b5b6111b58254610fbc565b6111c0828285611100565b5f60209050601f8311600181146111f1575f84156111df578287015190505b6111e9858261116e565b865550611250565b601f1984166111ff86610fec565b5f5b8281101561122657848901518255600182019150602085019450602081019050611201565b86831015611243578489015161123f601f891682611152565b8355505b6001600288020188555050505b505050505050565b7f436f6e747269627574696f6e206973206c657373207468616e206d696e696d755f8201527f6d00000000000000000000000000000000000000000000000000000000000000602082015250565b5f6112b2602183610b4a565b91506112bd82611258565b604082019050919050565b5f6020820190508181035f8301526112df816112a6565b9050919050565b5f6112f082610989565b91507fffffffffffffffffffffffffffffffffffffffffffffffffffffffffffffffff820361132257611321610e62565b5b600182019050919050565b7f43616c6c6572206973206e6f7420616e20617070726f766572000000000000005f82015250565b5f611361601983610b4a565b915061136c8261132d565b602082019050919050565b5f6020820190508181035f83015261138e81611355565b9050919050565b7f43616c6c65722068617320616c726561647920617070726f76656400000000005f82015250565b5f6113c9601b83610b4a565b91506113d482611395565b602082019050919050565b5f6020820190508181035f8301526113f6816113bd565b905091905056fea26469706673582212205bf83b652fcaed85392d5124ece91778b09291f3857ed8961eb98fdaa381025264736f6c634300081a0033","opcodes":"PUSH1 0x80 PUSH1 0x40 MSTORE CALLVALUE DUP1 ISZERO PUSH2 0xF JUMPI PUSH0 DUP1 REVERT JUMPDEST POP PUSH1 0x40 MLOAD PUSH2 0x158E CODESIZE SUB DUP1 PUSH2 0x158E DUP4 CODECOPY DUP2 DUP2 ADD PUSH1 0x40 MSTORE DUP2 ADD SWAP1 PUSH2 0x31 SWAP2 SWAP1 PUSH2 0x110 JUMP JUMPDEST DUP1 PUSH1 0x1 PUSH0 PUSH2 0x100 EXP DUP2 SLOAD DUP2 PUSH20 0xFFFFFFFFFFFFFFFFFFFFFFFFFFFFFFFFFFFFFFFF MUL NOT AND SWAP1 DUP4 PUSH20 0xFFFFFFFFFFFFFFFFFFFFFFFFFFFFFFFFFFFFFFFF AND MUL OR SWAP1 SSTORE POP DUP2 PUSH1 0x2 DUP2 SWAP1 SSTORE POP POP POP PUSH2 0x14E JUMP JUMPDEST PUSH0 DUP1 REVERT JUMPDEST PUSH0 DUP2 SWAP1 POP SWAP2 SWAP1 POP JUMP JUMPDEST PUSH2 0x95 DUP2 PUSH2 0x83 JUMP JUMPDEST DUP2 EQ PUSH2 0x9F JUMPI PUSH0 DUP1 REVERT JUMPDEST POP JUMP JUMPDEST PUSH0 DUP2 MLOAD SWAP1 POP PUSH2 0xB0 DUP2 PUSH2 0x8C JUMP JUMPDEST SWAP3 SWAP2 POP POP JUMP JUMPDEST PUSH0 PUSH20 0xFFFFFFFFFFFFFFFFFFFFFFFFFFFFFFFFFFFFFFFF DUP3 AND SWAP1 POP SWAP2 SWAP1 POP JUMP JUMPDEST PUSH0 PUSH2 0xDF DUP3 PUSH2 0xB6 JUMP JUMPDEST SWAP1 POP SWAP2 SWAP1 POP JUMP JUMPDEST PUSH2 0xEF DUP2 PUSH2 0xD5 JUMP JUMPDEST DUP2 EQ PUSH2 0xF9 JUMPI PUSH0 DUP1 REVERT JUMPDEST POP JUMP JUMPDEST PUSH0 DUP2 MLOAD SWAP1 POP PUSH2 0x10A DUP2 PUSH2 0xE6 JUMP JUMPDEST SWAP3 SWAP2 POP POP JUMP JUMPDEST PUSH0 DUP1 PUSH1 0x40 DUP4 DUP6 SUB SLT ISZERO PUSH2 0x126 JUMPI PUSH2 0x125 PUSH2 0x7F JUMP JUMPDEST JUMPDEST PUSH0 PUSH2 0x133 DUP6 DUP3 DUP7 ADD PUSH2 0xA2 JUMP JUMPDEST SWAP3 POP POP PUSH1 0x20 PUSH2 0x144 DUP6 DUP3 DUP7 ADD PUSH2 0xFC JUMP JUMPDEST SWAP2 POP POP SWAP3 POP SWAP3 SWAP1 POP JUMP JUMPDEST PUSH2 0x1433 DUP1 PUSH2 0x15B PUSH0 CODECOPY PUSH0 RETURN INVALID PUSH1 0x80 PUSH1 0x40 MSTORE PUSH1 0x4 CALLDATASIZE LT PUSH2 0x9B JUMPI PUSH0 CALLDATALOAD PUSH1 0xE0 SHR DUP1 PUSH4 0x81D12C58 GT PUSH2 0x63 JUMPI DUP1 PUSH4 0x81D12C58 EQ PUSH2 0x185 JUMPI DUP1 PUSH4 0x82FDE093 EQ PUSH2 0x1C5 JUMPI DUP1 PUSH4 0x8A9CFD55 EQ PUSH2 0x1EF JUMPI DUP1 PUSH4 0x937E09B1 EQ PUSH2 0x217 JUMPI DUP1 PUSH4 0xD7BB99BA EQ PUSH2 0x241 JUMPI DUP1 PUSH4 0xD7D1BBDB EQ PUSH2 0x24B JUMPI PUSH2 0x9B JUMP JUMPDEST DUP1 PUSH4 0x3441006 EQ PUSH2 0x9F JUMPI DUP1 PUSH4 0xA144391 EQ PUSH2 0xC7 JUMPI DUP1 PUSH4 0x3FAD1834 EQ PUSH2 0x103 JUMPI DUP1 PUSH4 0x4051DDAC EQ PUSH2 0x12D JUMPI DUP1 PUSH4 0x481C6A75 EQ PUSH2 0x15B JUMPI JUMPDEST PUSH0 DUP1 REVERT JUMPDEST CALLVALUE DUP1 ISZERO PUSH2 0xAA JUMPI PUSH0 DUP1 REVERT JUMPDEST POP PUSH2 0xC5 PUSH1 0x4 DUP1 CALLDATASIZE SUB DUP2 ADD SWAP1 PUSH2 0xC0 SWAP2 SWAP1 PUSH2 0x9BC JUMP JUMPDEST PUSH2 0x273 JUMP JUMPDEST STOP JUMPDEST CALLVALUE DUP1 ISZERO PUSH2 0xD2 JUMPI PUSH0 DUP1 REVERT JUMPDEST POP PUSH2 0xED PUSH1 0x4 DUP1 CALLDATASIZE SUB DUP2 ADD SWAP1 PUSH2 0xE8 SWAP2 SWAP1 PUSH2 0xA41 JUMP JUMPDEST PUSH2 0x456 JUMP JUMPDEST PUSH1 0x40 MLOAD PUSH2 0xFA SWAP2 SWAP1 PUSH2 0xA86 JUMP JUMPDEST PUSH1 0x40 MLOAD DUP1 SWAP2 SUB SWAP1 RETURN JUMPDEST CALLVALUE DUP1 ISZERO PUSH2 0x10E JUMPI PUSH0 DUP1 REVERT JUMPDEST POP PUSH2 0x117 PUSH2 0x473 JUMP JUMPDEST PUSH1 0x40 MLOAD PUSH2 0x124 SWAP2 SWAP1 PUSH2 0xAAE JUMP JUMPDEST PUSH1 0x40 MLOAD DUP1 SWAP2 SUB SWAP1 RETURN JUMPDEST CALLVALUE DUP1 ISZERO PUSH2 0x138 JUMPI PUSH0 DUP1 REVERT JUMPDEST POP PUSH2 0x141 PUSH2 0x47E JUMP JUMPDEST PUSH1 0x40 MLOAD PUSH2 0x152 SWAP6 SWAP5 SWAP4 SWAP3 SWAP2 SWAP1 PUSH2 0xAD6 JUMP JUMPDEST PUSH1 0x40 MLOAD DUP1 SWAP2 SUB SWAP1 RETURN JUMPDEST CALLVALUE DUP1 ISZERO PUSH2 0x166 JUMPI PUSH0 DUP1 REVERT JUMPDEST POP PUSH2 0x16F PUSH2 0x4C2 JUMP JUMPDEST PUSH1 0x40 MLOAD PUSH2 0x17C SWAP2 SWAP1 PUSH2 0xB27 JUMP JUMPDEST PUSH1 0x40 MLOAD DUP1 SWAP2 SUB SWAP1 RETURN JUMPDEST CALLVALUE DUP1 ISZERO PUSH2 0x190 JUMPI PUSH0 DUP1 REVERT JUMPDEST POP PUSH2 0x1AB PUSH1 0x4 DUP1 CALLDATASIZE SUB DUP2 ADD SWAP1 PUSH2 0x1A6 SWAP2 SWAP1 PUSH2 0x9BC JUMP JUMPDEST PUSH2 0x4E7 JUMP JUMPDEST PUSH1 0x40 MLOAD PUSH2 0x1BC SWAP6 SWAP5 SWAP4 SWAP3 SWAP2 SWAP1 PUSH2 0xBB0 JUMP JUMPDEST PUSH1 0x40 MLOAD DUP1 SWAP2 SUB SWAP1 RETURN JUMPDEST CALLVALUE DUP1 ISZERO PUSH2 0x1D0 JUMPI PUSH0 DUP1 REVERT JUMPDEST POP PUSH2 0x1D9 PUSH2 0x5D9 JUMP JUMPDEST PUSH1 0x40 MLOAD PUSH2 0x1E6 SWAP2 SWAP1 PUSH2 0xAAE JUMP JUMPDEST PUSH1 0x40 MLOAD DUP1 SWAP2 SUB SWAP1 RETURN JUMPDEST CALLVALUE DUP1 ISZERO PUSH2 0x1FA JUMPI PUSH0 DUP1 REVERT JUMPDEST POP PUSH2 0x215 PUSH1 0x4 DUP1 CALLDATASIZE SUB DUP2 ADD SWAP1 PUSH2 0x210 SWAP2 SWAP1 PUSH2 0xD34 JUMP JUMPDEST PUSH2 0x5DF JUMP JUMPDEST STOP JUMPDEST CALLVALUE DUP1 ISZERO PUSH2 0x222 JUMPI PUSH0 DUP1 REVERT JUMPDEST POP PUSH2 0x22B PUSH2 0x715 JUMP JUMPDEST PUSH1 0x40 MLOAD PUSH2 0x238 SWAP2 SWAP1 PUSH2 0xAAE JUMP JUMPDEST PUSH1 0x40 MLOAD DUP1 SWAP2 SUB SWAP1 RETURN JUMPDEST PUSH2 0x249 PUSH2 0x71B JUMP JUMPDEST STOP JUMPDEST CALLVALUE DUP1 ISZERO PUSH2 0x256 JUMPI PUSH0 DUP1 REVERT JUMPDEST POP PUSH2 0x271 PUSH1 0x4 DUP1 CALLDATASIZE SUB DUP2 ADD SWAP1 PUSH2 0x26C SWAP2 SWAP1 PUSH2 0x9BC JUMP JUMPDEST PUSH2 0x7CD JUMP JUMPDEST STOP JUMPDEST PUSH1 0x1 PUSH0 SWAP1 SLOAD SWAP1 PUSH2 0x100 EXP SWAP1 DIV PUSH20 0xFFFFFFFFFFFFFFFFFFFFFFFFFFFFFFFFFFFFFFFF AND PUSH20 0xFFFFFFFFFFFFFFFFFFFFFFFFFFFFFFFFFFFFFFFF AND CALLER PUSH20 0xFFFFFFFFFFFFFFFFFFFFFFFFFFFFFFFFFFFFFFFF AND EQ PUSH2 0x302 JUMPI PUSH1 0x40 MLOAD PUSH32 0x8C379A000000000000000000000000000000000000000000000000000000000 DUP2 MSTORE PUSH1 0x4 ADD PUSH2 0x2F9 SWAP1 PUSH2 0xDEA JUMP JUMPDEST PUSH1 0x40 MLOAD DUP1 SWAP2 SUB SWAP1 REVERT JUMPDEST PUSH0 DUP1 DUP3 DUP2 SLOAD DUP2 LT PUSH2 0x316 JUMPI PUSH2 0x315 PUSH2 0xE08 JUMP JUMPDEST JUMPDEST SWAP1 PUSH0 MSTORE PUSH1 0x20 PUSH0 KECCAK256 SWAP1 PUSH1 0x5 MUL ADD SWAP1 POP PUSH1 0x2 PUSH1 0x4 SLOAD PUSH2 0x333 SWAP2 SWAP1 PUSH2 0xE8F JUMP JUMPDEST DUP2 PUSH1 0x3 ADD SLOAD GT PUSH2 0x378 JUMPI PUSH1 0x40 MLOAD PUSH32 0x8C379A000000000000000000000000000000000000000000000000000000000 DUP2 MSTORE PUSH1 0x4 ADD PUSH2 0x36F SWAP1 PUSH2 0xF09 JUMP JUMPDEST PUSH1 0x40 MLOAD DUP1 SWAP2 SUB SWAP1 REVERT JUMPDEST DUP1 PUSH1 0x2 ADD PUSH1 0x14 SWAP1 SLOAD SWAP1 PUSH2 0x100 EXP SWAP1 DIV PUSH1 0xFF AND ISZERO PUSH2 0x3CA JUMPI PUSH1 0x40 MLOAD PUSH32 0x8C379A000000000000000000000000000000000000000000000000000000000 DUP2 MSTORE PUSH1 0x4 ADD PUSH2 0x3C1 SWAP1 PUSH2 0xF71 JUMP JUMPDEST PUSH1 0x40 MLOAD DUP1 SWAP2 SUB SWAP1 REVERT JUMPDEST DUP1 PUSH1 0x2 ADD PUSH0 SWAP1 SLOAD SWAP1 PUSH2 0x100 EXP SWAP1 DIV PUSH20 0xFFFFFFFFFFFFFFFFFFFFFFFFFFFFFFFFFFFFFFFF AND PUSH20 0xFFFFFFFFFFFFFFFFFFFFFFFFFFFFFFFFFFFFFFFF AND PUSH2 0x8FC DUP3 PUSH1 0x1 ADD SLOAD SWAP1 DUP2 ISZERO MUL SWAP1 PUSH1 0x40 MLOAD PUSH0 PUSH1 0x40 MLOAD DUP1 DUP4 SUB DUP2 DUP6 DUP9 DUP9 CALL SWAP4 POP POP POP POP ISZERO DUP1 ISZERO PUSH2 0x434 JUMPI RETURNDATASIZE PUSH0 DUP1 RETURNDATACOPY RETURNDATASIZE PUSH0 REVERT JUMPDEST POP PUSH1 0x1 DUP2 PUSH1 0x2 ADD PUSH1 0x14 PUSH2 0x100 EXP DUP2 SLOAD DUP2 PUSH1 0xFF MUL NOT AND SWAP1 DUP4 ISZERO ISZERO MUL OR SWAP1 SSTORE POP POP POP JUMP JUMPDEST PUSH1 0x3 PUSH1 0x20 MSTORE DUP1 PUSH0 MSTORE PUSH1 0x40 PUSH0 KECCAK256 PUSH0 SWAP2 POP SLOAD SWAP1 PUSH2 0x100 EXP SWAP1 DIV PUSH1 0xFF AND DUP2 JUMP JUMPDEST PUSH0 DUP1 DUP1 SLOAD SWAP1 POP SWAP1 POP SWAP1 JUMP JUMPDEST PUSH0 DUP1 PUSH0 DUP1 PUSH0 PUSH1 0x2 SLOAD SELFBALANCE PUSH0 DUP1 SLOAD SWAP1 POP PUSH1 0x4 SLOAD PUSH1 0x1 PUSH0 SWAP1 SLOAD SWAP1 PUSH2 0x100 EXP SWAP1 DIV PUSH20 0xFFFFFFFFFFFFFFFFFFFFFFFFFFFFFFFFFFFFFFFF AND SWAP5 POP SWAP5 POP SWAP5 POP SWAP5 POP SWAP5 POP SWAP1 SWAP2 SWAP3 SWAP4 SWAP5 JUMP JUMPDEST PUSH1 0x1 PUSH0 SWAP1 SLOAD SWAP1 PUSH2 0x100 EXP SWAP1 DIV PUSH20 0xFFFFFFFFFFFFFFFFFFFFFFFFFFFFFFFFFFFFFFFF AND DUP2 JUMP JUMPDEST PUSH0 DUP2 DUP2 SLOAD DUP2 LT PUSH2 0x4F5 JUMPI PUSH0 DUP1 REVERT JUMPDEST SWAP1 PUSH0 MSTORE PUSH1 0x20 PUSH0 KECCAK256 SWAP1 PUSH1 0x5 MUL ADD PUSH0 SWAP2 POP SWAP1 POP DUP1 PUSH0 ADD DUP1 SLOAD PUSH2 0x514 SWAP1 PUSH2 0xFBC JUMP JUMPDEST DUP1 PUSH1 0x1F ADD PUSH1 0x20 DUP1 SWAP2 DIV MUL PUSH1 0x20 ADD PUSH1 0x40 MLOAD SWAP1 DUP2 ADD PUSH1 0x40 MSTORE DUP1 SWAP3 SWAP2 SWAP1 DUP2 DUP2 MSTORE PUSH1 0x20 ADD DUP3 DUP1 SLOAD PUSH2 0x540 SWAP1 PUSH2 0xFBC JUMP JUMPDEST DUP1 ISZERO PUSH2 0x58B JUMPI DUP1 PUSH1 0x1F LT PUSH2 0x562 JUMPI PUSH2 0x100 DUP1 DUP4 SLOAD DIV MUL DUP4 MSTORE SWAP2 PUSH1 0x20 ADD SWAP2 PUSH2 0x58B JUMP JUMPDEST DUP3 ADD SWAP2 SWAP1 PUSH0 MSTORE PUSH1 0x20 PUSH0 KECCAK256 SWAP1 JUMPDEST DUP2 SLOAD DUP2 MSTORE SWAP1 PUSH1 0x1 ADD SWAP1 PUSH1 0x20 ADD DUP1 DUP4 GT PUSH2 0x56E JUMPI DUP3 SWAP1 SUB PUSH1 0x1F AND DUP3 ADD SWAP2 JUMPDEST POP POP POP POP POP SWAP1 DUP1 PUSH1 0x1 ADD SLOAD SWAP1 DUP1 PUSH1 0x2 ADD PUSH0 SWAP1 SLOAD SWAP1 PUSH2 0x100 EXP SWAP1 DIV PUSH20 0xFFFFFFFFFFFFFFFFFFFFFFFFFFFFFFFFFFFFFFFF AND SWAP1 DUP1 PUSH1 0x2 ADD PUSH1 0x14 SWAP1 SLOAD SWAP1 PUSH2 0x100 EXP SWAP1 DIV PUSH1 0xFF AND SWAP1 DUP1 PUSH1 0x3 ADD SLOAD SWAP1 POP DUP6 JUMP JUMPDEST PUSH1 0x4 SLOAD DUP2 JUMP JUMPDEST PUSH1 0x1 PUSH0 SWAP1 SLOAD SWAP1 PUSH2 0x100 EXP SWAP1 DIV PUSH20 0xFFFFFFFFFFFFFFFFFFFFFFFFFFFFFFFFFFFFFFFF AND PUSH20 0xFFFFFFFFFFFFFFFFFFFFFFFFFFFFFFFFFFFFFFFF AND CALLER PUSH20 0xFFFFFFFFFFFFFFFFFFFFFFFFFFFFFFFFFFFFFFFF AND EQ PUSH2 0x66E JUMPI PUSH1 0x40 MLOAD PUSH32 0x8C379A000000000000000000000000000000000000000000000000000000000 DUP2 MSTORE PUSH1 0x4 ADD PUSH2 0x665 SWAP1 PUSH2 0xDEA JUMP JUMPDEST PUSH1 0x40 MLOAD DUP1 SWAP2 SUB SWAP1 REVERT JUMPDEST PUSH0 DUP1 PUSH1 0x1 DUP2 PUSH1 0x1 DUP2 SLOAD ADD DUP1 DUP3 SSTORE DUP1 SWAP2 POP POP SUB SWAP1 PUSH0 MSTORE PUSH1 0x20 PUSH0 KECCAK256 SWAP1 PUSH1 0x5 MUL ADD SWAP1 POP DUP4 DUP2 PUSH0 ADD SWAP1 DUP2 PUSH2 0x69E SWAP2 SWAP1 PUSH2 0x1189 JUMP JUMPDEST POP DUP3 DUP2 PUSH1 0x1 ADD DUP2 SWAP1 SSTORE POP DUP2 DUP2 PUSH1 0x2 ADD PUSH0 PUSH2 0x100 EXP DUP2 SLOAD DUP2 PUSH20 0xFFFFFFFFFFFFFFFFFFFFFFFFFFFFFFFFFFFFFFFF MUL NOT AND SWAP1 DUP4 PUSH20 0xFFFFFFFFFFFFFFFFFFFFFFFFFFFFFFFFFFFFFFFF AND MUL OR SWAP1 SSTORE POP PUSH0 DUP2 PUSH1 0x2 ADD PUSH1 0x14 PUSH2 0x100 EXP DUP2 SLOAD DUP2 PUSH1 0xFF MUL NOT AND SWAP1 DUP4 ISZERO ISZERO MUL OR SWAP1 SSTORE POP PUSH0 DUP2 PUSH1 0x3 ADD DUP2 SWAP1 SSTORE POP POP POP POP POP JUMP JUMPDEST PUSH1 0x2 SLOAD DUP2 JUMP JUMPDEST PUSH1 0x2 SLOAD CALLVALUE GT PUSH2 0x75F JUMPI PUSH1 0x40 MLOAD PUSH32 0x8C379A000000000000000000000000000000000000000000000000000000000 DUP2 MSTORE PUSH1 0x4 ADD PUSH2 0x756 SWAP1 PUSH2 0x12C8 JUMP JUMPDEST PUSH1 0x40 MLOAD DUP1 SWAP2 SUB SWAP1 REVERT JUMPDEST PUSH1 0x1 PUSH1 0x3 PUSH0 CALLER PUSH20 0xFFFFFFFFFFFFFFFFFFFFFFFFFFFFFFFFFFFFFFFF AND PUSH20 0xFFFFFFFFFFFFFFFFFFFFFFFFFFFFFFFFFFFFFFFF AND DUP2 MSTORE PUSH1 0x20 ADD SWAP1 DUP2 MSTORE PUSH1 0x20 ADD PUSH0 KECCAK256 PUSH0 PUSH2 0x100 EXP DUP2 SLOAD DUP2 PUSH1 0xFF MUL NOT AND SWAP1 DUP4 ISZERO ISZERO MUL OR SWAP1 SSTORE POP PUSH1 0x4 PUSH0 DUP2 SLOAD DUP1 SWAP3 SWAP2 SWAP1 PUSH2 0x7C6 SWAP1 PUSH2 0x12E6 JUMP JUMPDEST SWAP2 SWAP1 POP SSTORE POP JUMP JUMPDEST PUSH0 DUP1 DUP3 DUP2 SLOAD DUP2 LT PUSH2 0x7E1 JUMPI PUSH2 0x7E0 PUSH2 0xE08 JUMP JUMPDEST JUMPDEST SWAP1 PUSH0 MSTORE PUSH1 0x20 PUSH0 KECCAK256 SWAP1 PUSH1 0x5 MUL ADD SWAP1 POP PUSH1 0x3 PUSH0 CALLER PUSH20 0xFFFFFFFFFFFFFFFFFFFFFFFFFFFFFFFFFFFFFFFF AND PUSH20 0xFFFFFFFFFFFFFFFFFFFFFFFFFFFFFFFFFFFFFFFF AND DUP2 MSTORE PUSH1 0x20 ADD SWAP1 DUP2 MSTORE PUSH1 0x20 ADD PUSH0 KECCAK256 PUSH0 SWAP1 SLOAD SWAP1 PUSH2 0x100 EXP SWAP1 DIV PUSH1 0xFF AND PUSH2 0x878 JUMPI PUSH1 0x40 MLOAD PUSH32 0x8C379A000000000000000000000000000000000000000000000000000000000 DUP2 MSTORE PUSH1 0x4 ADD PUSH2 0x86F SWAP1 PUSH2 0x1377 JUMP JUMPDEST PUSH1 0x40 MLOAD DUP1 SWAP2 SUB SWAP1 REVERT JUMPDEST DUP1 PUSH1 0x4 ADD PUSH0 CALLER PUSH20 0xFFFFFFFFFFFFFFFFFFFFFFFFFFFFFFFFFFFFFFFF AND PUSH20 0xFFFFFFFFFFFFFFFFFFFFFFFFFFFFFFFFFFFFFFFF AND DUP2 MSTORE PUSH1 0x20 ADD SWAP1 DUP2 MSTORE PUSH1 0x20 ADD PUSH0 KECCAK256 PUSH0 SWAP1 SLOAD SWAP1 PUSH2 0x100 EXP SWAP1 DIV PUSH1 0xFF AND ISZERO PUSH2 0x904 JUMPI PUSH1 0x40 MLOAD PUSH32 0x8C379A000000000000000000000000000000000000000000000000000000000 DUP2 MSTORE PUSH1 0x4 ADD PUSH2 0x8FB SWAP1 PUSH2 0x13DF JUMP JUMPDEST PUSH1 0x40 MLOAD DUP1 SWAP2 SUB SWAP1 REVERT JUMPDEST PUSH1 0x1 DUP2 PUSH1 0x4 ADD PUSH0 CALLER PUSH20 0xFFFFFFFFFFFFFFFFFFFFFFFFFFFFFFFFFFFFFFFF AND PUSH20 0xFFFFFFFFFFFFFFFFFFFFFFFFFFFFFFFFFFFFFFFF AND DUP2 MSTORE PUSH1 0x20 ADD SWAP1 DUP2 MSTORE PUSH1 0x20 ADD PUSH0 KECCAK256 PUSH0 PUSH2 0x100 EXP DUP2 SLOAD DUP2 PUSH1 0xFF MUL NOT AND SWAP1 DUP4 ISZERO ISZERO MUL OR SWAP1 SSTORE POP DUP1 PUSH1 0x3 ADD PUSH0 DUP2 SLOAD DUP1 SWAP3 SWAP2 SWAP1 PUSH2 0x96F SWAP1 PUSH2 0x12E6 JUMP JUMPDEST SWAP2 SWAP1 POP SSTORE POP POP POP JUMP JUMPDEST PUSH0 PUSH1 0x40 MLOAD SWAP1 POP SWAP1 JUMP JUMPDEST PUSH0 DUP1 REVERT JUMPDEST PUSH0 DUP1 REVERT JUMPDEST PUSH0 DUP2 SWAP1 POP SWAP2 SWAP1 POP JUMP JUMPDEST PUSH2 0x99B DUP2 PUSH2 0x989 JUMP JUMPDEST DUP2 EQ PUSH2 0x9A5 JUMPI PUSH0 DUP1 REVERT JUMPDEST POP JUMP JUMPDEST PUSH0 DUP2 CALLDATALOAD SWAP1 POP PUSH2 0x9B6 DUP2 PUSH2 0x992 JUMP JUMPDEST SWAP3 SWAP2 POP POP JUMP JUMPDEST PUSH0 PUSH1 0x20 DUP3 DUP5 SUB SLT ISZERO PUSH2 0x9D1 JUMPI PUSH2 0x9D0 PUSH2 0x981 JUMP JUMPDEST JUMPDEST PUSH0 PUSH2 0x9DE DUP5 DUP3 DUP6 ADD PUSH2 0x9A8 JUMP JUMPDEST SWAP2 POP POP SWAP3 SWAP2 POP POP JUMP JUMPDEST PUSH0 PUSH20 0xFFFFFFFFFFFFFFFFFFFFFFFFFFFFFFFFFFFFFFFF DUP3 AND SWAP1 POP SWAP2 SWAP1 POP JUMP JUMPDEST PUSH0 PUSH2 0xA10 DUP3 PUSH2 0x9E7 JUMP JUMPDEST SWAP1 POP SWAP2 SWAP1 POP JUMP JUMPDEST PUSH2 0xA20 DUP2 PUSH2 0xA06 JUMP JUMPDEST DUP2 EQ PUSH2 0xA2A JUMPI PUSH0 DUP1 REVERT JUMPDEST POP JUMP JUMPDEST PUSH0 DUP2 CALLDATALOAD SWAP1 POP PUSH2 0xA3B DUP2 PUSH2 0xA17 JUMP JUMPDEST SWAP3 SWAP2 POP POP JUMP JUMPDEST PUSH0 PUSH1 0x20 DUP3 DUP5 SUB SLT ISZERO PUSH2 0xA56 JUMPI PUSH2 0xA55 PUSH2 0x981 JUMP JUMPDEST JUMPDEST PUSH0 PUSH2 0xA63 DUP5 DUP3 DUP6 ADD PUSH2 0xA2D JUMP JUMPDEST SWAP2 POP POP SWAP3 SWAP2 POP POP JUMP JUMPDEST PUSH0 DUP2 ISZERO ISZERO SWAP1 POP SWAP2 SWAP1 POP JUMP JUMPDEST PUSH2 0xA80 DUP2 PUSH2 0xA6C JUMP JUMPDEST DUP3 MSTORE POP POP JUMP JUMPDEST PUSH0 PUSH1 0x20 DUP3 ADD SWAP1 POP PUSH2 0xA99 PUSH0 DUP4 ADD DUP5 PUSH2 0xA77 JUMP JUMPDEST SWAP3 SWAP2 POP POP JUMP JUMPDEST PUSH2 0xAA8 DUP2 PUSH2 0x989 JUMP JUMPDEST DUP3 MSTORE POP POP JUMP JUMPDEST PUSH0 PUSH1 0x20 DUP3 ADD SWAP1 POP PUSH2 0xAC1 PUSH0 DUP4 ADD DUP5 PUSH2 0xA9F JUMP JUMPDEST SWAP3 SWAP2 POP POP JUMP JUMPDEST PUSH2 0xAD0 DUP2 PUSH2 0xA06 JUMP JUMPDEST DUP3 MSTORE POP POP JUMP JUMPDEST PUSH0 PUSH1 0xA0 DUP3 ADD SWAP1 POP PUSH2 0xAE9 PUSH0 DUP4 ADD DUP9 PUSH2 0xA9F JUMP JUMPDEST PUSH2 0xAF6 PUSH1 0x20 DUP4 ADD DUP8 PUSH2 0xA9F JUMP JUMPDEST PUSH2 0xB03 PUSH1 0x40 DUP4 ADD DUP7 PUSH2 0xA9F JUMP JUMPDEST PUSH2 0xB10 PUSH1 0x60 DUP4 ADD DUP6 PUSH2 0xA9F JUMP JUMPDEST PUSH2 0xB1D PUSH1 0x80 DUP4 ADD DUP5 PUSH2 0xAC7 JUMP JUMPDEST SWAP7 SWAP6 POP POP POP POP POP POP JUMP JUMPDEST PUSH0 PUSH1 0x20 DUP3 ADD SWAP1 POP PUSH2 0xB3A PUSH0 DUP4 ADD DUP5 PUSH2 0xAC7 JUMP JUMPDEST SWAP3 SWAP2 POP POP JUMP JUMPDEST PUSH0 DUP2 MLOAD SWAP1 POP SWAP2 SWAP1 POP JUMP JUMPDEST PUSH0 DUP3 DUP3 MSTORE PUSH1 0x20 DUP3 ADD SWAP1 POP SWAP3 SWAP2 POP POP JUMP JUMPDEST DUP3 DUP2 DUP4 MCOPY PUSH0 DUP4 DUP4 ADD MSTORE POP POP POP JUMP JUMPDEST PUSH0 PUSH1 0x1F NOT PUSH1 0x1F DUP4 ADD AND SWAP1 POP SWAP2 SWAP1 POP JUMP JUMPDEST PUSH0 PUSH2 0xB82 DUP3 PUSH2 0xB40 JUMP JUMPDEST PUSH2 0xB8C DUP2 DUP6 PUSH2 0xB4A JUMP JUMPDEST SWAP4 POP PUSH2 0xB9C DUP2 DUP6 PUSH1 0x20 DUP7 ADD PUSH2 0xB5A JUMP JUMPDEST PUSH2 0xBA5 DUP2 PUSH2 0xB68 JUMP JUMPDEST DUP5 ADD SWAP2 POP POP SWAP3 SWAP2 POP POP JUMP JUMPDEST PUSH0 PUSH1 0xA0 DUP3 ADD SWAP1 POP DUP2 DUP2 SUB PUSH0 DUP4 ADD MSTORE PUSH2 0xBC8 DUP2 DUP9 PUSH2 0xB78 JUMP JUMPDEST SWAP1 POP PUSH2 0xBD7 PUSH1 0x20 DUP4 ADD DUP8 PUSH2 0xA9F JUMP JUMPDEST PUSH2 0xBE4 PUSH1 0x40 DUP4 ADD DUP7 PUSH2 0xAC7 JUMP JUMPDEST PUSH2 0xBF1 PUSH1 0x60 DUP4 ADD DUP6 PUSH2 0xA77 JUMP JUMPDEST PUSH2 0xBFE PUSH1 0x80 DUP4 ADD DUP5 PUSH2 0xA9F JUMP JUMPDEST SWAP7 SWAP6 POP POP POP POP POP POP JUMP JUMPDEST PUSH0 DUP1 REVERT JUMPDEST PUSH0 DUP1 REVERT JUMPDEST PUSH32 0x4E487B7100000000000000000000000000000000000000000000000000000000 PUSH0 MSTORE PUSH1 0x41 PUSH1 0x4 MSTORE PUSH1 0x24 PUSH0 REVERT JUMPDEST PUSH2 0xC46 DUP3 PUSH2 0xB68 JUMP JUMPDEST DUP2 ADD DUP2 DUP2 LT PUSH8 0xFFFFFFFFFFFFFFFF DUP3 GT OR ISZERO PUSH2 0xC65 JUMPI PUSH2 0xC64 PUSH2 0xC10 JUMP JUMPDEST JUMPDEST DUP1 PUSH1 0x40 MSTORE POP POP POP JUMP JUMPDEST PUSH0 PUSH2 0xC77 PUSH2 0x978 JUMP JUMPDEST SWAP1 POP PUSH2 0xC83 DUP3 DUP3 PUSH2 0xC3D JUMP JUMPDEST SWAP2 SWAP1 POP JUMP JUMPDEST PUSH0 PUSH8 0xFFFFFFFFFFFFFFFF DUP3 GT ISZERO PUSH2 0xCA2 JUMPI PUSH2 0xCA1 PUSH2 0xC10 JUMP JUMPDEST JUMPDEST PUSH2 0xCAB DUP3 PUSH2 0xB68 JUMP JUMPDEST SWAP1 POP PUSH1 0x20 DUP2 ADD SWAP1 POP SWAP2 SWAP1 POP JUMP JUMPDEST DUP3 DUP2 DUP4 CALLDATACOPY PUSH0 DUP4 DUP4 ADD MSTORE POP POP POP JUMP JUMPDEST PUSH0 PUSH2 0xCD8 PUSH2 0xCD3 DUP5 PUSH2 0xC88 JUMP JUMPDEST PUSH2 0xC6E JUMP JUMPDEST SWAP1 POP DUP3 DUP2 MSTORE PUSH1 0x20 DUP2 ADD DUP5 DUP5 DUP5 ADD GT ISZERO PUSH2 0xCF4 JUMPI PUSH2 0xCF3 PUSH2 0xC0C JUMP JUMPDEST JUMPDEST PUSH2 0xCFF DUP5 DUP3 DUP6 PUSH2 0xCB8 JUMP JUMPDEST POP SWAP4 SWAP3 POP POP POP JUMP JUMPDEST PUSH0 DUP3 PUSH1 0x1F DUP4 ADD SLT PUSH2 0xD1B JUMPI PUSH2 0xD1A PUSH2 0xC08 JUMP JUMPDEST JUMPDEST DUP2 CALLDATALOAD PUSH2 0xD2B DUP5 DUP3 PUSH1 0x20 DUP7 ADD PUSH2 0xCC6 JUMP JUMPDEST SWAP2 POP POP SWAP3 SWAP2 POP POP JUMP JUMPDEST PUSH0 DUP1 PUSH0 PUSH1 0x60 DUP5 DUP7 SUB SLT ISZERO PUSH2 0xD4B JUMPI PUSH2 0xD4A PUSH2 0x981 JUMP JUMPDEST JUMPDEST PUSH0 DUP5 ADD CALLDATALOAD PUSH8 0xFFFFFFFFFFFFFFFF DUP2 GT ISZERO PUSH2 0xD68 JUMPI PUSH2 0xD67 PUSH2 0x985 JUMP JUMPDEST JUMPDEST PUSH2 0xD74 DUP7 DUP3 DUP8 ADD PUSH2 0xD07 JUMP JUMPDEST SWAP4 POP POP PUSH1 0x20 PUSH2 0xD85 DUP7 DUP3 DUP8 ADD PUSH2 0x9A8 JUMP JUMPDEST SWAP3 POP POP PUSH1 0x40 PUSH2 0xD96 DUP7 DUP3 DUP8 ADD PUSH2 0xA2D JUMP JUMPDEST SWAP2 POP POP SWAP3 POP SWAP3 POP SWAP3 JUMP JUMPDEST PUSH32 0x43616C6C6572206973206E6F7420746865206D616E6167657200000000000000 PUSH0 DUP3 ADD MSTORE POP JUMP JUMPDEST PUSH0 PUSH2 0xDD4 PUSH1 0x19 DUP4 PUSH2 0xB4A JUMP JUMPDEST SWAP2 POP PUSH2 0xDDF DUP3 PUSH2 0xDA0 JUMP JUMPDEST PUSH1 0x20 DUP3 ADD SWAP1 POP SWAP2 SWAP1 POP JUMP JUMPDEST PUSH0 PUSH1 0x20 DUP3 ADD SWAP1 POP DUP2 DUP2 SUB PUSH0 DUP4 ADD MSTORE PUSH2 0xE01 DUP2 PUSH2 0xDC8 JUMP JUMPDEST SWAP1 POP SWAP2 SWAP1 POP JUMP JUMPDEST PUSH32 0x4E487B7100000000000000000000000000000000000000000000000000000000 PUSH0 MSTORE PUSH1 0x32 PUSH1 0x4 MSTORE PUSH1 0x24 PUSH0 REVERT JUMPDEST PUSH32 0x4E487B7100000000000000000000000000000000000000000000000000000000 PUSH0 MSTORE PUSH1 0x12 PUSH1 0x4 MSTORE PUSH1 0x24 PUSH0 REVERT JUMPDEST PUSH32 0x4E487B7100000000000000000000000000000000000000000000000000000000 PUSH0 MSTORE PUSH1 0x11 PUSH1 0x4 MSTORE PUSH1 0x24 PUSH0 REVERT JUMPDEST PUSH0 PUSH2 0xE99 DUP3 PUSH2 0x989 JUMP JUMPDEST SWAP2 POP PUSH2 0xEA4 DUP4 PUSH2 0x989 JUMP JUMPDEST SWAP3 POP DUP3 PUSH2 0xEB4 JUMPI PUSH2 0xEB3 PUSH2 0xE35 JUMP JUMPDEST JUMPDEST DUP3 DUP3 DIV SWAP1 POP SWAP3 SWAP2 POP POP JUMP JUMPDEST PUSH32 0x4E6F7420656E6F75676820617070726F76616C73000000000000000000000000 PUSH0 DUP3 ADD MSTORE POP JUMP JUMPDEST PUSH0 PUSH2 0xEF3 PUSH1 0x14 DUP4 PUSH2 0xB4A JUMP JUMPDEST SWAP2 POP PUSH2 0xEFE DUP3 PUSH2 0xEBF JUMP JUMPDEST PUSH1 0x20 DUP3 ADD SWAP1 POP SWAP2 SWAP1 POP JUMP JUMPDEST PUSH0 PUSH1 0x20 DUP3 ADD SWAP1 POP DUP2 DUP2 SUB PUSH0 DUP4 ADD MSTORE PUSH2 0xF20 DUP2 PUSH2 0xEE7 JUMP JUMPDEST SWAP1 POP SWAP2 SWAP1 POP JUMP JUMPDEST PUSH32 0x5265717565737420616C726561647920636F6D706C6574656400000000000000 PUSH0 DUP3 ADD MSTORE POP JUMP JUMPDEST PUSH0 PUSH2 0xF5B PUSH1 0x19 DUP4 PUSH2 0xB4A JUMP JUMPDEST SWAP2 POP PUSH2 0xF66 DUP3 PUSH2 0xF27 JUMP JUMPDEST PUSH1 0x20 DUP3 ADD SWAP1 POP SWAP2 SWAP1 POP JUMP JUMPDEST PUSH0 PUSH1 0x20 DUP3 ADD SWAP1 POP DUP2 DUP2 SUB PUSH0 DUP4 ADD MSTORE PUSH2 0xF88 DUP2 PUSH2 0xF4F JUMP JUMPDEST SWAP1 POP SWAP2 SWAP1 POP JUMP JUMPDEST PUSH32 0x4E487B7100000000000000000000000000000000000000000000000000000000 PUSH0 MSTORE PUSH1 0x22 PUSH1 0x4 MSTORE PUSH1 0x24 PUSH0 REVERT JUMPDEST PUSH0 PUSH1 0x2 DUP3 DIV SWAP1 POP PUSH1 0x1 DUP3 AND DUP1 PUSH2 0xFD3 JUMPI PUSH1 0x7F DUP3 AND SWAP2 POP JUMPDEST PUSH1 0x20 DUP3 LT DUP2 SUB PUSH2 0xFE6 JUMPI PUSH2 0xFE5 PUSH2 0xF8F JUMP JUMPDEST JUMPDEST POP SWAP2 SWAP1 POP JUMP JUMPDEST PUSH0 DUP2 SWAP1 POP DUP2 PUSH0 MSTORE PUSH1 0x20 PUSH0 KECCAK256 SWAP1 POP SWAP2 SWAP1 POP JUMP JUMPDEST PUSH0 PUSH1 0x20 PUSH1 0x1F DUP4 ADD DIV SWAP1 POP SWAP2 SWAP1 POP JUMP JUMPDEST PUSH0 DUP3 DUP3 SHL SWAP1 POP SWAP3 SWAP2 POP POP JUMP JUMPDEST PUSH0 PUSH1 0x8 DUP4 MUL PUSH2 0x1048 PUSH32 0xFFFFFFFFFFFFFFFFFFFFFFFFFFFFFFFFFFFFFFFFFFFFFFFFFFFFFFFFFFFFFFFF DUP3 PUSH2 0x100D JUMP JUMPDEST PUSH2 0x1052 DUP7 DUP4 PUSH2 0x100D JUMP JUMPDEST SWAP6 POP DUP1 NOT DUP5 AND SWAP4 POP DUP1 DUP7 AND DUP5 OR SWAP3 POP POP POP SWAP4 SWAP3 POP POP POP JUMP JUMPDEST PUSH0 DUP2 SWAP1 POP SWAP2 SWAP1 POP JUMP JUMPDEST PUSH0 PUSH2 0x108D PUSH2 0x1088 PUSH2 0x1083 DUP5 PUSH2 0x989 JUMP JUMPDEST PUSH2 0x106A JUMP JUMPDEST PUSH2 0x989 JUMP JUMPDEST SWAP1 POP SWAP2 SWAP1 POP JUMP JUMPDEST PUSH0 DUP2 SWAP1 POP SWAP2 SWAP1 POP JUMP JUMPDEST PUSH2 0x10A6 DUP4 PUSH2 0x1073 JUMP JUMPDEST PUSH2 0x10BA PUSH2 0x10B2 DUP3 PUSH2 0x1094 JUMP JUMPDEST DUP5 DUP5 SLOAD PUSH2 0x1019 JUMP JUMPDEST DUP3 SSTORE POP POP POP POP JUMP JUMPDEST PUSH0 SWAP1 JUMP JUMPDEST PUSH2 0x10CE PUSH2 0x10C2 JUMP JUMPDEST PUSH2 0x10D9 DUP2 DUP5 DUP5 PUSH2 0x109D JUMP JUMPDEST POP POP POP JUMP JUMPDEST JUMPDEST DUP2 DUP2 LT ISZERO PUSH2 0x10FC JUMPI PUSH2 0x10F1 PUSH0 DUP3 PUSH2 0x10C6 JUMP JUMPDEST PUSH1 0x1 DUP2 ADD SWAP1 POP PUSH2 0x10DF JUMP JUMPDEST POP POP JUMP JUMPDEST PUSH1 0x1F DUP3 GT ISZERO PUSH2 0x1141 JUMPI PUSH2 0x1112 DUP2 PUSH2 0xFEC JUMP JUMPDEST PUSH2 0x111B DUP5 PUSH2 0xFFE JUMP JUMPDEST DUP2 ADD PUSH1 0x20 DUP6 LT ISZERO PUSH2 0x112A JUMPI DUP2 SWAP1 POP JUMPDEST PUSH2 0x113E PUSH2 0x1136 DUP6 PUSH2 0xFFE JUMP JUMPDEST DUP4 ADD DUP3 PUSH2 0x10DE JUMP JUMPDEST POP POP JUMPDEST POP POP POP JUMP JUMPDEST PUSH0 DUP3 DUP3 SHR SWAP1 POP SWAP3 SWAP2 POP POP JUMP JUMPDEST PUSH0 PUSH2 0x1161 PUSH0 NOT DUP5 PUSH1 0x8 MUL PUSH2 0x1146 JUMP JUMPDEST NOT DUP1 DUP4 AND SWAP2 POP POP SWAP3 SWAP2 POP POP JUMP JUMPDEST PUSH0 PUSH2 0x1179 DUP4 DUP4 PUSH2 0x1152 JUMP JUMPDEST SWAP2 POP DUP3 PUSH1 0x2 MUL DUP3 OR SWAP1 POP SWAP3 SWAP2 POP POP JUMP JUMPDEST PUSH2 0x1192 DUP3 PUSH2 0xB40 JUMP JUMPDEST PUSH8 0xFFFFFFFFFFFFFFFF DUP2 GT ISZERO PUSH2 0x11AB JUMPI PUSH2 0x11AA PUSH2 0xC10 JUMP JUMPDEST JUMPDEST PUSH2 0x11B5 DUP3 SLOAD PUSH2 0xFBC JUMP JUMPDEST PUSH2 0x11C0 DUP3 DUP3 DUP6 PUSH2 0x1100 JUMP JUMPDEST PUSH0 PUSH1 0x20 SWAP1 POP PUSH1 0x1F DUP4 GT PUSH1 0x1 DUP2 EQ PUSH2 0x11F1 JUMPI PUSH0 DUP5 ISZERO PUSH2 0x11DF JUMPI DUP3 DUP8 ADD MLOAD SWAP1 POP JUMPDEST PUSH2 0x11E9 DUP6 DUP3 PUSH2 0x116E JUMP JUMPDEST DUP7 SSTORE POP PUSH2 0x1250 JUMP JUMPDEST PUSH1 0x1F NOT DUP5 AND PUSH2 0x11FF DUP7 PUSH2 0xFEC JUMP JUMPDEST PUSH0 JUMPDEST DUP3 DUP2 LT ISZERO PUSH2 0x1226 JUMPI DUP5 DUP10 ADD MLOAD DUP3 SSTORE PUSH1 0x1 DUP3 ADD SWAP2 POP PUSH1 0x20 DUP6 ADD SWAP5 POP PUSH1 0x20 DUP2 ADD SWAP1 POP PUSH2 0x1201 JUMP JUMPDEST DUP7 DUP4 LT ISZERO PUSH2 0x1243 JUMPI DUP5 DUP10 ADD MLOAD PUSH2 0x123F PUSH1 0x1F DUP10 AND DUP3 PUSH2 0x1152 JUMP JUMPDEST DUP4 SSTORE POP JUMPDEST PUSH1 0x1 PUSH1 0x2 DUP9 MUL ADD DUP9 SSTORE POP POP POP JUMPDEST POP POP POP POP POP POP JUMP JUMPDEST PUSH32 0x436F6E747269627574696F6E206973206C657373207468616E206D696E696D75 PUSH0 DUP3 ADD MSTORE PUSH32 0x6D00000000000000000000000000000000000000000000000000000000000000 PUSH1 0x20 DUP3 ADD MSTORE POP JUMP JUMPDEST PUSH0 PUSH2 0x12B2 PUSH1 0x21 DUP4 PUSH2 0xB4A JUMP JUMPDEST SWAP2 POP PUSH2 0x12BD DUP3 PUSH2 0x1258 JUMP JUMPDEST PUSH1 0x40 DUP3 ADD SWAP1 POP SWAP2 SWAP1 POP JUMP JUMPDEST PUSH0 PUSH1 0x20 DUP3 ADD SWAP1 POP DUP2 DUP2 SUB PUSH0 DUP4 ADD MSTORE PUSH2 0x12DF DUP2 PUSH2 0x12A6 JUMP JUMPDEST SWAP1 POP SWAP2 SWAP1 POP JUMP JUMPDEST PUSH0 PUSH2 0x12F0 DUP3 PUSH2 0x989 JUMP JUMPDEST SWAP2 POP PUSH32 0xFFFFFFFFFFFFFFFFFFFFFFFFFFFFFFFFFFFFFFFFFFFFFFFFFFFFFFFFFFFFFFFF DUP3 SUB PUSH2 0x1322 JUMPI PUSH2 0x1321 PUSH2 0xE62 JUMP JUMPDEST JUMPDEST PUSH1 0x1 DUP3 ADD SWAP1 POP SWAP2 SWAP1 POP JUMP JUMPDEST PUSH32 0x43616C6C6572206973206E6F7420616E20617070726F76657200000000000000 PUSH0 DUP3 ADD MSTORE POP JUMP JUMPDEST PUSH0 PUSH2 0x1361 PUSH1 0x19 DUP4 PUSH2 0xB4A JUMP JUMPDEST SWAP2 POP PUSH2 0x136C DUP3 PUSH2 0x132D JUMP JUMPDEST PUSH1 0x20 DUP3 ADD SWAP1 POP SWAP2 SWAP1 POP JUMP JUMPDEST PUSH0 PUSH1 0x20 DUP3 ADD SWAP1 POP DUP2 DUP2 SUB PUSH0 DUP4 ADD MSTORE PUSH2 0x138E DUP2 PUSH2 0x1355 JUMP JUMPDEST SWAP1 POP SWAP2 SWAP1 POP JUMP JUMPDEST PUSH32 0x43616C6C65722068617320616C726561647920617070726F7665640000000000 PUSH0 DUP3 ADD MSTORE POP JUMP JUMPDEST PUSH0 PUSH2 0x13C9 PUSH1 0x1B DUP4 PUSH2 0xB4A JUMP JUMPDEST SWAP2 POP PUSH2 0x13D4 DUP3 PUSH2 0x1395 JUMP JUMPDEST PUSH1 0x20 DUP3 ADD SWAP1 POP SWAP2 SWAP1 POP JUMP JUMPDEST PUSH0 PUSH1 0x20 DUP3 ADD SWAP1 POP DUP2 DUP2 SUB PUSH0 DUP4 ADD MSTORE PUSH2 0x13F6 DUP2 PUSH2 0x13BD JUMP JUMPDEST SWAP1 POP SWAP2 SWAP1 POP JUMP INVALID LOG2 PUSH5 0x6970667358 0x22 SLT KECCAK256 JUMPDEST 0xF8 EXTCODESIZE PUSH6 0x2FCAED85392D MLOAD 0x24 0xEC 0xE9 OR PUSH25 0xB09291F3857ED8961EB98FDAA381025264736F6C634300081A STOP CALLER "},"gasEstimates":{"creation":{"codeDepositCost":"1034200","executionCost":"infinite","totalCost":"infinite"},"external":{"approveRequest(uint256)":"infinite","approvers(address)":"2856","approversCount()":"2447","contribute()":"51036","createRequest(string,uint256,address)":"infinite","finalizeRequest(uint256)":"infinite","getRequestCount()":"2485","getSummary()":"infinite","manager()":"2597","minimumContribution()":"2491","requests(uint256)":"infinite"}},"methodIdentifiers":{"approveRequest(uint256)":"d7d1bbdb","approvers(address)":"0a144391","approversCount()":"82fde093","contribute()":"d7bb99ba","createRequest(string,uint256,address)":"8a9cfd55","finalizeRequest(uint256)":"03441006","getRequestCount()":"3fad1834","getSummary()":"4051ddac","manager()":"481c6a75","minimumContribution()":"937e09b1","requests(uint256)":"81d12c58"}},"storageLayout":{"storage":[{"astId":58,"contract":"Campaign.sol:Campaign","label":"requests","offset":0,"slot":"0","type":"t_array(t_struct(Request)54_storage)dyn_storage"},{"astId":60,"contract":"Campaign.sol:Campaign","label":"manager","offset":0,"slot":"1","type":"t_address"},{"astId":62,"contract":"Campaign.sol:Campaign","label":"minimumContribution","offset":0,"slot":"2","type":"t_uint256"},{"astId":66,"contract":"Campaign.sol:Campaign","label":"approvers","offset":0,"slot":"3","type":"t_mapping(t_address,t_bool)"},{"astId":68,"contract":"Campaign.sol:Campaign","label":"approversCount","offset":0,"slot":"4","type":"t_uint256"}],"types":{"t_address":{"encoding":"inplace","label":"address","numberOfBytes":"20"},"t_array(t_struct(Request)54_storage)dyn_storage":{"base":"t_struct(Request)54_storage","encoding":"dynamic_array","label":"struct Campaign.Request[]","numberOfBytes":"32"},"t_bool":{"encoding":"inplace","label":"bool","numberOfBytes":"1"},"t_mapping(t_address,t_bool)":{"encoding":"mapping","key":"t_address","label":"mapping(address => bool)","numberOfBytes":"32","value":"t_bool"},"t_string_storage":{"encoding":"bytes","label":"string","numberOfBytes":"32"},"t_struct(Request)54_storage":{"encoding":"inplace","label":"struct Campaign.Request","members":[{"astId":41,"contract":"Campaign.sol:Campaign","label":"description","offset":0,"slot":"0","type":"t_string_storage"},{"astId":43,"contract":"Campaign.sol:Campaign","label":"value","offset":0,"slot":"1","type":"t_uint256"},{"astId":45,"contract":"Campaign.sol:Campaign","label":"recipient","offset":0,"slot":"2","type":"t_address"},{"astId":47,"contract":"Campaign.sol:Campaign","label":"complete","offset":20,"slot":"2","type":"t_bool"},{"astId":49,"contract":"Campaign.sol:Campaign","label":"approvalCount","offset":0,"slot":"3","type":"t_uint256"},{"astId":53,"contract":"Campaign.sol:Campaign","label":"approvals","offset":0,"slot":"4","type":"t_mapping(t_address,t_bool)"}],"numberOfBytes":"160"},"t_uint256":{"encoding":"inplace","label":"uint256","numberOfBytes":"32"}}},"userdoc":{"kind":"user","methods":{},"version":1}}